:020000040800F2
:10000000A049002001010008131E0008B51B0008CC
:10001000111E0008E102000885230008000000000E
:10002000000000000000000000000000392000086F
:100030001B03000800000000BF1F00086921000822
:100040001B0100081B0100081B0100081B01000820
:100050001B0100081B0100081B0100081B01000810
:100060001B0100081B0100081B010008E502000835
:100070001B0100081B0100081B0100081B010008F0
:100080001B0100081B010008910100081B0100086A
:100090001B0100081B0100081B0100081B010008D0
:1000A0001B0100081B0100081B0100081B010008C0
:1000B0001B010008E92100081B0100081B010008C2
:1000C0001B0100081B0100081B0100081B010008A0
:1000D0001B0100081B0100081B0100081B01000890
:1000E0001B0100081B0100081B010008DFF80CD0F1
:1000F00000F03CF80048004775240008A0490020A3
:100100000648804706480047FEE7FEE7FEE7FEE7B1
:10011000FEE7FEE7FEE7FEE7FEE7FEE7E521000873
:10012000ED0000080649074A0868504343F23902C7
:10013000104408604008704701490860704700009B
:10014000180000206D4EC641D2B201E000F8012B2C
:10015000491EFBD270470022F6E710B513460A4647
:1001600004461946FFF7F0FF204610BD064C074D28
:1001700006E0E06840F0010394E807009847103477
:10018000AC42F6D3FFF7B6FFE024000800250008D4
:10019000014800F0C9BA00008000002070B5044694
:1001A00000688168C943C90717D1816821F001013E
:1001B000816000F0A9FE05460AE000BF00F0A4FE41
:1001C000401B022804D920688068C043C00706D0BD
:1001D00020688068C043C007F0D0002070BDA06ACE
:1001E00040F01000A062E06A40F00100E0620120EF
:1001F00070BD10B50146406A826A12F0500F05D0FA
:10020000006A026BBDE8104008461047816A41F45D
:100210000071816201688968C1F3424107290CD1EC
:10022000017B51B9816A21F480718162816AC904BC
:1002300003D4816A41F00101816200F039FA10BDF6
:1002400010B5406A816A41F040018162C16A41F0A3
:100250000401C16200F067FA10BD10B5406A00F0F9
:1002600061FA10BDF8B50026044600960068816862
:10027000C943C9072DD0816841F00101816016484A
:1002800016490068B0FBF1F000E0401E0090002825
:10029000FBD100F039FE054616E000BF00F034FE49
:1002A000401B022810D920688068C043C0070BD0CB
:1002B000A06A40F01000A062E06A40F00100E06235
:1002C00084F824600120F8BD20688068C043C0071E
:1002D000E4D10020F8BD00000C00002040420F00D7
:1002E000FEE70000014800F0F7BB0000B00000206E
:1002F00030B590F840500124AC40C56B6C60046888
:1003000063604368102B036803D099600068C26083
:1003100030BD9A600068C16030BD7047F0B51149CA
:100320000022FF2601F560731020032501EBC214A3
:10033000C0270BE0102809D0112807D06E2805D05F
:100340006F2803D022B1072A05D103E0265402E02A
:100350000D5400E01F54401C7028EBDB521C082A8F
:10036000E2DBF0BD8001002072B6FEE72DE9F0412E
:100370001D480068FFF7E0FE1C4D1D4C2CE00126D7
:10038000FFF7D0FE5C2190FBF1F201FB120012306E
:100390002060FFF7C7FE3C21801C90FBF1F201FBBF
:1003A00012016160002022682B6811E005EBC00794
:1003B000D7F810C094450ADA0CF1040C624506DA4D
:1003C0007F698F4203DA3F1DB94200DA0026401CE4
:1003D0008342EBDC012E04D0A0680028CFD0BDE81A
:1003E000F0810120A060FAE71400002080050020C1
:1003F0009045002070B5134C134D20692A68011DEB
:10040000914217DB001F904214DC60696968031D8C
:100410008B420FDB001F88420CDCA86868B100200B
:10042000A860D0B2C9B20423012201F0C9FD20683E
:10043000401C2060A868002803D1BDE87040FFF789
:1004400095BF70BD800500209045002070B5002448
:100450000D4D08E005EBC4000423017D007C002263
:1004600001F0AEFD641C2868A042F3DC07488168F7
:1004700029B1017900780423002201F0A1FDBDE833
:10048000704001F0F1BC0000800500209045002084
:1004900070B501F0CBFC01F0BDFCFFF73FFF0D484C
:1004A0000421032201600121C0E90121C160002172
:1004B000122302240268521A03EB820500EBC102E8
:1004C000491CC2E9045402688A42F3DCBDE870406A
:1004D000FFF74CBF80050020F8B5002504460095C5
:1004E00090F82400012808D0012084F82400204638
:1004F000FFF754FE060002D053E00220F8BDA06AC8
:1005000020F4885040F00200A062022000F09AFD22
:1005100026490968B1FBF0F0400000E0401E009061
:100520000028FBD12046FFF79DFE2068816841F03E
:100530000801816000F0E8FC074608E000F0E4FCF8
:10054000C01B0A2803D920688068000715D42068DA
:1005500080680007F2D42068816841F0040181605E
:1005600000F0D2FC074612E000F0CEFCC01B0A28C7
:100570000DD920688068400709D5A06A20F00200E4
:1005800040F01000A06284F824500120F8BD2068DB
:1005900080684007E8D4A06A20F0020040F0010023
:1005A000A06284F824503046F8BD00000C00002002
:1005B00070470000F8B50024009490F824202546E8
:1005C000012A12D0012280F824204A681F23072A1A
:1005D0000DD20668776B521E02EB820293409F4356
:1005E0000B6893401F43776319E00220F8BD06684B
:1005F0000D2A0AD2376BD21F02EB820293409F432F
:100600000B6893401F43376309E0F76A0D3A02EB2A
:10061000820293409F430B6893401F43F7620A682E
:10062000072306680A2A0AD3F7680A3A02EB42024D
:1006300093409F438B6893401F43F76008E03769FE
:1006400002EB420293409F438B6893401F43376104
:100650000A68102A01D0112A20D1124B02689A424E
:1006600017D193681B0219D4936843F40003936075
:100670000968102912D10C490C4A0968B1FBF2F142
:1006800001EB8101490000E0491E00910029FBD1E6
:1006900004E0816A41F020018162012480F8245045
:1006A0002046F8BD002401400C00002040420F000D
:1006B00010B50068184988422CD10021174B0A4612
:1006C000084600BF33F81040401C214433F8104066
:1006D000401C22443228F5DB1920B1FBF0F1B2FBBB
:1006E000F0F04FF4A57358435943020B090B4FF434
:1006F00096730B489A4201D300210AE01E2A01D8C2
:10070000012106E0994201D3022102E01E2901D80D
:100710000321016010BD0000002401401C000020E6
:10072000100000207047704710B50446006841680B
:10073000890626D50168890723D5A16AC90603D48D
:10074000A16A41F40071A1628168C1F342410729A5
:1007500010D1217B71B9416821F020014160A06A6C
:1007600020F48070A062A06AC00403D4A06A40F0A4
:100770000100A0622046FFF79BFF21686FF0120086
:1007800008602068416809062ED5016849072BD505
:10079000A16AC90603D4A16A41F40051A16281682B
:1007A000C1F30231072909D04168490515D4816890
:1007B000C1F34241072910D1217B71B9416821F071
:1007C00080014160A06A20F48050A062A06AC00548
:1007D00003D4A06A40F00100A0622046FFF7E8FEC3
:1007E00021686FF00C0008602068416849060DD54B
:1007F0000068C0070AD0A06A40F48030A06220469A
:1008000000F094F821686FF00100086010BD00004E
:100810002DE9F0414FF0000704003D467ED0A06A6C
:10082000002628B9E66284F82460204600F080F8AB
:100830002046FFF7B3FCA16A01F01001014304D088
:10084000A06A40F01000A06268E0A16A21F488511B
:1008500041F00201A1626268E169237B0A4347EA31
:1008600043010A43A1684FF48077B94208D00129B7
:1008700006D0002194F814C0BCF1010F02D00AE0A8
:100880003946F7E7F3B1A36A43F02003A362E36AB2
:1008900043F00103E3622368D3F804C02CF4694CED
:1008A0004CEA010CC3F804C023689968DFF870C0F3
:1008B00001EA0C0111439960A168B9420BD00129EA
:1008C00009D00CE0DFF85CC0A3690CEB43330B43A9
:1008D00043F40061DFE7218A0D05A5F58015216845
:1008E000CB6A23F470032B43CB62216889680E4BDB
:1008F0001940914208D1E662A16A21F0020141F05B
:100900000101A162BDE8F081A06A20F0020040F080
:100910001000A062E06A40F00100E0620120F1E70F
:10092000FDF7E1FF00E0FFFFFE0E1FFF7047000034
:1009300070B586B000250646009501950295039591
:1009400000681D49884235D11C49886940F400700F
:100950008861886900F400700490886940F00400A0
:1009600088618869694600F00400049003200090C3
:100970000190134800F0D2F9134C1248C4E9000565
:100980008020C4E902504000206180006061202086
:10099000C4E90605204600F049F908B1FFF7E4FC78
:1009A0003462002211461220666200F019FB122008
:1009B00000F008FB06B070BD0024014000100240AA
:1009C0000008014008000240B00000202DE9F04777
:1009D000894604463B4900683B4F0E1D90468842BD
:1009E00001D0B84207D1306810F4702F03D0012530
:1009F0002846BDE8F08794F8240001280CD0012097
:100A000084F824002046FFF72DFC05004FF000007D
:100A100004D084F82400EBE70220EAE7A16A40F65C
:100A20000162914341F48071A1622168B94218D1F9
:100A3000326812F4702F14D0A16A41F48011A162BF
:100A40003168490505D5A16A21F4005141F480516E
:100A5000A162A16AC9040AD5E16A21F00601E16236
:100A600006E0A26A22F48012A2624968E9E7E06225
:100A700084F82400216A15488862216A1448C862F3
:100A8000216A1448086321686FF00200086020683A
:100A9000816841F480718160216843464A464C3147
:100AA000206A00F0F1F820688168C1F3424107290B
:100AB000816803D041F48011816099E741F4A0017D
:100AC000FAE700000024014000280140F30100087B
:100AD0005B020008410200082DE9F05FC16B0C6861
:100AE00001680B68D0F840C0042202FA0CF2494DAC
:100AF000DFF824A1494E4A4FDFF828B1DFF828E19A
:100B000022422CD05A072AD50A68920603D40A68D2
:100B100022F004020A600168A94201D1042219E00E
:100B2000514501D1402215E0B14202D14FF480621B
:100B300010E0B94202D14FF480420BE0594502D196
:100B40004FF4802206E0714502D14FF4800201E0AB
:100B50004FF080622F4908394A60C16A3BE04FF08C
:100B6000020808FA0CF818EA040F4FF000094FF0D9
:100B7000010235D05FEA837832D50B689B0605D435
:100B80000B6823F00A030B6080F821200168A9425A
:100B900001D1022219E0514501D1202215E0B142D4
:100BA00002D14FF4007210E0B94202D14FF400526A
:100BB0000BE0594502D14FF4003206E0714502D1F5
:100BC0004FF4001201E04FF00072124908394A60F8
:100BD00080F82090816A00291AD0BDE8F05F0847AC
:100BE000082505FA0CF5254212D01B0710D50B6815
:100BF00023F00E030B6090F84010C36B02FA01F172
:100C00005960826380F8212080F82090016BE2E730
:100C1000BDE8F09F080002401C0002403000024086
:100C200044000240580002406C00024030B528B336
:100C300008C8134914221944B1FBF2F18900C163B9
:100C400010498163022141771A6843F6F0718A43A3
:100C5000D0E900142143D0E902452C432143046923
:100C600021434469214384692143114319600021D0
:100C70004163012242770177084630BD012030BD33
:100C8000F8FFFDBF0000024070B5044690F8200058
:100C9000002501280CD0012084F8200094F8216060
:100CA0000020012E06D084F820000225284670BDC1
:100CB000022070BD022684F82160A06320680668C7
:100CC00026F0010606602046FFF712FBE06A0028C6
:100CD0002068016802D041F00E0106E021F0040115
:100CE00001602068016841F00A0101602068016824
:100CF00041F001010160D9E770B5044600F004F944
:100D00000546601C02D004480078044400F0FCF85A
:100D1000401BA042FAD370BD000000202DE9F84F1F
:100D2000DFF8B891002409F1040A0AF1040B234604
:100D30000F270BF1040EC9E00125A5402A40AA4265
:100D40007DD1674ED1F804C0ACEB0608B44532D073
:100D500014DCBCF1030F3AD009DCBCF1000F2AD03F
:100D6000BCF1010F1CD0BCF1020F31D11DE0BCF170
:100D7000110F17D0BCF1120F2AD119E0B8F5881F56
:100D800019D006DCB8F5803F15D0B8F5801F1FD10B
:100D900011E0B8F5001F0ED0B8F5041F18D10AE015
:100DA000CB6815E0CB681B1D12E0CB6808330FE061
:100DB000CB680C330CE08B682BB1012B4FF0080390
:100DC00003D0456104E0042302E0056100E0002354
:100DD000FF2A01D8064601E000F104064FEA840527
:100DE00001D9A5F12005D6F8008007FA05FC28EA0C
:100DF0000C0803FA05F548EA0508C6F800804D68B6
:100E0000ED0062D5374DAE6946F00106AE61AD69C1
:100E100024F0030605F001050095334D06EB050CA3
:100E2000DCF80850A607360F07FA06F825EA080589
:100E3000DFF8B880404503D14FF0000817E044E0E8
:100E4000DFF8AC80404502D14FF001080FE0DFF839
:100E5000A480404502D14FF0020808E0DFF89880F6
:100E6000404502D14FF0030801E04FF0040808FAB2
:100E700006F848EA0508CCF808804D68D9F8006003
:100E8000ED034D4601D5164300E096432E604D68B4
:100E9000DAF80060AD03554601D5164300E09643ED
:100EA0002E604D68DBF80060ED025D4601D516430B
:100EB00000E096432E604D68DEF80060AD02754696
:100EC00001D5164300E096432E60641C0D682A4647
:100ED000E5407FF431AFBDE8F88F00000004014029
:100EE0000000111000100240000001400008014005
:100EF000000C014000100140001401400AB10161E2
:100F000070470904FBE70000014880687047000053
:100F10000000002002488168027811448160704717
:100F200000000020074810B5016841F01001016081
:100F3000032000F075F80F2000F006F800F024F808
:100F4000002010BD0020024070B50D4D04464FF446
:100F50007A712878B1FBF0F00A490968B1FBF0F02A
:100F600000F0C6FB48B9102C07D200222146501EC3
:100F700000F036F800206C6070BD012070BD0000EC
:100F8000000000200C0000200C4808B5816941F0E9
:100F900001018161816901F001010091C16941F0A4
:100FA0008051C161C06900F08050009004484168E0
:100FB00021F0E06141F08061416008BD0010024015
:100FC00000000140002809DB00F01F0201219140D0
:100FD0004009800000F1E020C0F8001170470000D7
:100FE000F0B40E4B1B680C46C3F30223C3F1070594
:100FF000042D00D90425191D072901D2002300E082
:10100000DB1E012606FA05F1491E214099409E404B
:10101000761E16403143F0BC01F00CBA0CED00E036
:10102000064900F0070208684FF6FF03184040EA3F
:101030000220034A10430860704700000CED00E0F6
:101040000000FA0510B529A401461DCC86B08DE834
:101050001D002AA02A4C006804900020012923D0FA
:1010600002293AD010291DD161682268D20119D510
:10107000C1F38342C9031DF8020009D5616804AABF
:10108000C1F34041515C1F4AB2FBF1F1484301E01A
:101090001D4948436168490204D440005FF00301E0
:1010A000B0FBF1F006B010BD226AC2F301210129A4
:1010B00003D1920701D5C803F4E7022905D1626A7A
:1010C000920702D549F64040ECE70329EAD12168AE
:1010D0008903E7D54FF22440E4E700F033F9616873
:1010E000C1F38131491C4900DAE70000020304051D
:1010F000060708090A0B0C0D0E0F10100102000064
:101100000010024000127A0000093D002DE9F8436A
:1011100005460078354CC00754D0E0690026C00071
:1011200008D4E06940F08050E061E069012600F0F9
:10113000805000902E480168C90512D4016880468D
:1011400041F480710160FFF7DFFE074605E000BF54
:10115000FFF7DAFEC01B642823D8D8F80000C005CA
:10116000F6D5206A10F4407021D0A98801F44071AE
:1011700081421CD0206A1F49012220F440700A607D
:1011800000220A602062C00711D0FFF7BDFE0746AB
:1011900041F2883808E000BFFFF7B6FEC11B4145A9
:1011A00002D90320BDE8F883206A8007F4D5206ABD
:1011B000696820F44070084320621EB1E06920F0A5
:1011C0008050E0612878800705D56068A96820F420
:1011D0004040084360602878C00605D56068E9682B
:1011E00020F48000084360600020DBE7001002402C
:1011F00000700040400442422DE9F0470F460500D0
:1012000061D0434E306800F00700B84209D2306820
:1012100020F0070038433060306800F00700B84223
:1012200051D128683B4C810712D5400703D560682F
:1012300040F4E06060602878000703D5606840F4FF
:10124000605060606068A96820F0F000084360604A
:101250002878C00728D06868012810D021680228A3
:1012600010D0890700292EDA616821F003010143BB
:101270006160FFF749FE804641F288390DE0216840
:101280008903EFE78901EDE7FFF73EFEA0EB0801D8
:10129000494502D90320BDE8F0876068696800F01D
:1012A0000C00B0EB810FEFD1306800F00700B842BE
:1012B0000BD9306820F0070038433060306800F008
:1012C0000700B84201D00120E5E72878400705D59E
:1012D0006068E96820F4E0600843606028780007EF
:1012E00006D56068296920F4605040EAC10060605A
:1012F00000F038F86168084AC1F30311515CC84036
:101300000649086006480068FFF71EFE0020C2E795
:101310000020024000100240C82400080C000020F9
:10132000040000200448054900684968044AC1F3E4
:101330000221515CC84070470C00002000100240A0
:10134000D82400080448054900684968044AC1F3E4
:10135000C221515CC84070470C00002000100240C0
:10136000D824000812A185B00FC98DE80F0014A081
:10137000144A006804905168134801F00C03042BD0
:1013800010D0082B0ED1C1F38343C9031DF803000D
:101390000AD5516804AAC1F34041515C0A4A50433E
:1013A000B0FBF1F005B0704708494843FAE7000088
:1013B00002030405060708090A0B0C0D0E0F101096
:1013C000010200000010024000127A0000093D00F6
:1013D0002DE9F84F040070D02078C04DC00749D0E7
:1013E0006868C0F38100012807D06868C0F38100F5
:1013F000022809D16868C00306D52868800339D55A
:1014000060680028E7D035E06068B0F5803F0BD019
:1014100010B1B0F5A02F11D0286820F480302860DA
:10142000286820F4802002E0286840F4803028609A
:10143000606890B1FFF768FD06460AE0286840F44E
:1014400080202860F0E700BFFFF75EFD801B642866
:1014500073D828688003F7D50CE0FFF755FD0646E2
:1014600005E000BFFFF750FD801B6428F0D8286816
:101470008003F7D420789A4E80074FF001094FF08F
:10148000000839D5686810F00C0F07D06868C0F301
:101490008100022809D16868C00306D42868800743
:1014A00014D52069012808D110E02069B0B1C6F830
:1014B0000090FFF729FD074605E00AE1FFF724FD4C
:1014C000C01B0228C4D828688007F7D5286861693E
:1014D00020F0F80040EAC10028600DE0C6F8008066
:1014E000FFF712FD074604E0FFF70EFDC01B0228C0
:1014F00023D828688007F7D4207800072CD57948AE
:10150000A169D9B1C0F80090FFF7FEFC074604E0DE
:10151000FFF7FAFCC01B02280FD8686A8007F7D5CE
:1015200071484FF4FA510068B0FBF1F0009000BF31
:101530000098411E0091FAD20EE080E0C0F80080D1
:10154000FFF7E2FC074604E0FFF7DEFCC01B0228C1
:1015500075D8686A8007F7D42078400760D5E869B5
:101560000027C00008D4E86940F08050E861E869CD
:10157000012700F0805000905C480168C90513D431
:101580000168834641F480710160FFF7BDFC82462B
:1015900006E000BFFFF7B8FCA0EB0A0064284ED8B5
:1015A000DBF80000C005F5D5E06801280AD008B1D5
:1015B000052813D0286A20F001002862286A20F04C
:1015C000040002E0286A40F001002862E06841F26D
:1015D000883B98B1FFF798FC82460BE0286A40F000
:1015E00004002862EEE700BFFFF78EFCA0EB0A01C3
:1015F00059455AD8286A8007F6D50CE0FFF784FCD5
:10160000824605E0FFF780FCA0EB0A0159454CD863
:10161000286A8007F6D41FB1E86920F08050E8619D
:10162000E06988B36968C1F38101022944D00228C6
:10163000C6F8608004D0FFF767FC044638E034E069
:10164000FFF762FC074604E0FFF75EFCC01B0228C0
:101650002BD828688001F7D4206AB0F5803F05D1E7
:101660006868A16820F4003008436860D4E9080184
:101670000843696821F4741108436860C6F86090F3
:10168000FFF742FC044606E025E000BFFFF73CFC04
:10169000001B022809D828688001F7D51BE000BF8D
:1016A000FFF732FC001B022802D90320BDE8F88FA7
:1016B00028688001F4D40EE00128F7D06868226A17
:1016C00000F48031914204D1616A00F470108842C4
:1016D00001D00120EAE70020E8E700000010024006
:1016E00000004242800442420C0000200070004092
:1016F00010B5401EB0F1807F01D3012010BD4FF026
:10170000E02460610F21601700F094FE0020A061CA
:1017100007202061002010BD7047704770B590F819
:101720003C20012A26D0012480F83C40022280F887
:101730003D2003685A689D6822F070060A683243AB
:101740005A600D4B02689A4208D0B2F1804F05D022
:101750000A4B9A4202D00A4B9A4204D1496825F0BA
:1017600080031943916080F83D40002180F83C10CF
:10177000084670BD022070BD002C014000040040EE
:101780000008004010B5040003D094F83D0010B1EB
:1017900007E0012010BD002084F83C00204600F046
:1017A0001FF8022084F83D00211D206800F022FD72
:1017B000012084F8460084F83E0084F83F0084F855
:1017C000400084F8410084F8420084F8430084F823
:1017D000440084F8450084F83D00002010BD00005E
:1017E00008B500680B49884212D10B48C16941F025
:1017F0000201C161C069002200F0020000901146A0
:101800001D20FFF7EDFBBDE808401D20FFF7DABB08
:1018100008BD0000000400400010024090F83D1098
:10182000012901D001207047022180F83D10016894
:10183000CA6842F00102CA6000680B49884208D0B9
:10184000B0F1804F05D00949884202D0084988424A
:1018500004D1816801F00701062903D0016841F035
:101860000101016000207047002C0140000400408D
:101870000008004070B5044690F83C00012817D0DD
:10188000012584F83C50022084F83D0020688268DD
:1018900022F0770222F47F4282600868502830D01C
:1018A0000DDC20284DD005DC98B310283BD148E052
:1018B000022070BD302844D0402834D139E060285F
:1018C00028D0702806D0B0F5805F2CD0B0F5005F2E
:1018D00029D10AE0CB68D1E90121206800F0C0FCE1
:1018E0002068816841F0770109E0CB68D1E90121E6
:1018F000206800F0B5FC2068816841F48041816077
:1019000011E0CA684968206800F0BCFC50212068DA
:1019100007E016E0CA684968206800F0C4FC60214E
:10192000206800F0A7FC84F83D50002084F83C00BB
:1019300070BDCA684968206800F0A4FC4021206896
:10194000EFE7226801461046EBE7704770B50446A2
:10195000006801694FF00005C943890715D4C168C3
:10196000C943890711D4E91E01610120207720684D
:1019700080698007204602D0FFF7E7FF04E000F00F
:1019800098F8204600F096F8257720680169C94349
:10199000490717D4C168C943490713D46FF004013C
:1019A0000161022020772068806910F4407F204682
:1019B00002D0FFF7CAFF04E000F07BF8204600F0F9
:1019C00079F8257720680169C943090716D4C168E9
:1019D000C943090712D46FF0080101610420207780
:1019E0002068C0698007204602D0FFF7AEFF04E000
:1019F00000F05FF8204600F05DF825772068016967
:101A0000C943C90617D4C168C943C90613D46FF0C6
:101A100010010161082020772068C06910F4407F20
:101A2000204602D0FFF791FF04E000F042F8204684
:101A300000F040F8257720680169C943C90708D13B
:101A4000C168C943C90704D1891E0161204600F05D
:101A500033F820680169C943090609D4C168C9433C
:101A6000090605D46FF0800101612046FFF754FE9E
:101A700020680169C943490609D4C168C9434906B8
:101A800005D46FF040010161204600F029F820687C
:101A90000169C94389060BD4C168C943890607D4C3
:101AA0006FF0200101612046BDE87040FFF735BEB0
:101AB00070BD704770470000074900680968884298
:101AC00009D1064942F21072086890FBF2F302FB5A
:101AD0001300401C08607047F40000201400002030
:101AE000704770B5040004D094F83D00002510B193
:101AF00006E0012070BD84F83C50204600F022F83A
:101B0000242084F83D002068C16821F40051C160A0
:101B1000204600F0DBFB2068016921F4904101615F
:101B20002068416921F02A0141612068C16841F4BF
:101B30000051C1602564202084F83D0084F83E00F7
:101B4000002070BD30B585B000240094019402944B
:101B5000039400681449884224D11448816941F4EF
:101B600080418161816901F480410491816941F082
:101B70000401816180690E4D00F0040004904FF46F
:101B800000700090022001900320039069462846CF
:101B9000FFF7C4F82815CDE90004694628460294E9
:101BA000FFF7BCF805B030BD00380140001002401E
:101BB00000080140FEE7000010B50B4C0122402157
:101BC0002046FFF79BF9012280212046FFF796F976
:101BD000002280212046FFF791F920460022BDE82F
:101BE00010404021FFF78AB9000C014010B5094CA4
:101BF000012240212046FFF781F900228021204662
:101C0000FFF77CF920460122BDE810408021FFF754
:101C100075B90000000C014010B5064C01224021AE
:101C20002046FFF76BF920460022BDE81040402116
:101C3000FFF764B9000C0140FEB500251648009579
:101C4000019514490295016089158160012404738E
:101C50000575022606614FF460214560C161FEF7FB
:101C6000D7FD08B1FEF780FBCDE9005469460A486C
:101C70000294FEF79FFC08B1FEF776FBCDE9004623
:101C800069460548FEF796FC002801D0FEF76CFB7C
:101C9000FEBD00000024014080000020094808B576
:101CA000416941F0010141614069002200F00100F9
:101CB000009011460B20FFF793F9BDE808400B2078
:101CC000FFF780B9001002402DE9F04186B00024F2
:101CD00024480094019402940394816941F0100116
:101CE0008161816901F010010491816941F0200155
:101CF0008161816901F020010491816941F0040151
:101D00008161816901F004010491816941F0080158
:101D100081618069144F00F008004FF40055049071
:101D2000002229463846FFF7E9F8DFF84080002214
:101D3000C0214046FFF7E2F80095022601250396F0
:101D4000CDE9015469463846FEF7E8FFC020CDE9E9
:101D50000005CDE9024669464046FEF7DFFF06B0C2
:101D6000BDE8F0810010024000100140000C01406D
:101D700010B586B00024174800940194029403948F
:101D8000049413490594016041F61F41C0E9011410
:101D900042F21071C0E903148461FFF7F3FC08B14B
:101DA000FEF7E2FA4FF48050009069460948FFF7C9
:101DB00061FD08B1FEF7D8FA049404A9054805941A
:101DC000FFF7ACFC002801D0FEF7CEFA06B010BD3C
:101DD00000040040F40000200C4810B50A490160DE
:101DE0004FF4E1314160002181600C22C160C0E903
:101DF00004128161C161FFF774FE002803D0BDE8C1
:101E00001040FEF7B1BA10BD003801403C0100207F
:101E1000FEE7FEE710B5002480210348FEF79BF99A
:101E2000641C082CF8DB10BD8001002070B5002474
:101E3000002104F1B00000F0BCF80021084600F0D9
:101E4000B8F80021102000F0B4F80025012100208E
:101E500000F0AFF86D1CEDB2802DF7D3641CE4B236
:101E6000082CE5D370BD00002DE9F0410A4F002594
:101E7000002407EBC516E9B2E0B200F085F8305D4A
:101E8000012100F096F8641C802CF4DB6D1C082DF9
:101E9000EEDBBDE8F08100008001002010B50122DA
:101EA000C0213848FFF72AF80021AE2000F081F861
:101EB0000021084600F07DF80021102000F079F89C
:101EC0000021402000F075F80021B02000F071F8EA
:101ED0000021812000F06DF80021FF2000F069F85A
:101EE0000021A12000F065F80021A62000F061F893
:101EF0000021A82000F05DF800213F2000F059F8F3
:101F00000021C82000F055F80021D32000F051F83E
:101F10000021084600F04DF80021D52000F049F8D6
:101F20000021802000F045F80021D82000F041F881
:101F30000021052000F03DF80021D92000F039F8FB
:101F40000021F12000F035F80021DA2000F031F80E
:101F50000021122000F02DF80021DB2000F029F8EC
:101F60000021302000F025F800218D2000F021F81C
:101F70000021142000F01DF80021BDE81040AF2022
:101F800000F017B8000C014010B50A4604460021C5
:101F900002F1B00000F00DF8102040EA141000210A
:101FA00000F007F804F00F00BDE810400021AFF387
:101FB0000080C0B209B100F026BA00F00DBA704737
:101FC0002DE9F04389460025DFF868802DE000BF49
:101FD00009EB0501CC1701EB5474C4F3C70624F0D8
:101FE0000704091BCFB20124002102E06406240E7D
:101FF000491CB942FADB002108EBC61712E046186B
:10200000802E0EDA12B1012A05D00AE017F806C0B8
:102010004CEA040C03E017F806C02CEA040C07F89D
:1020200006C0491C9942EADB6D1C9D42D0DBBDE82D
:10203000F083000080010020704700000D48026816
:102040000D4841684AB1012A0BD0022A0ED0032A5A
:102050000BD1022909D0032106E0012905D0002176
:1020600002E0002901D00121416070470329FCD022
:102070000221F9E710000020800500200E480168C9
:10208000052901DC002107E08A1F032A01D801216C
:1020900002E0092901DD02218160806830B1012858
:1020A00006D0022806D11920FEF726BE6420FBE7E1
:1020B0003220F9E7704700008005002010B5FEF7D8
:1020C0002DF900F00BF8FEF7C1F9FEF793F9FFF7D1
:1020D000B5FFBDE81040FFF7D1BF000010B5214C9F
:1020E000E06800282BD02068042304EBC000012204
:1020F000017B007AFFF764FF206805E004EBC00174
:102100008A680A61CA684A61401E0028F6DC606875
:102110000021A8B101281BD0022808D003280ED125
:102120002069001D20616E2809DB122005E020696E
:10213000001F2061122802DA6E20C4E9031010BDCE
:102140006069001F60610228F9DA3E20E16006E064
:102150006069001D60613E28F1DB0220E160606182
:1021600010BD000080050020FEF7D4BE30B593B04E
:1021700028216846FDF7EFFF14210AA8FDF7EBFFC1
:10218000002501200F9510951195010412958DE8F9
:10219000230004904FF4E010CDE9081002240794C6
:1021A0006846FFF715F908B172B6FEE70AA90F20D5
:1021B00081E831004FF48060CDE90D0502210AA8C5
:1021C000FFF71AF808B172B6FEE74FF4004011901D
:1021D0000F940FA8FEF79AFF002801D072B6FEE711
:1021E00013B030BD704700000148FFF7AFBB0000DF
:1021F000F4000020F0B50268164B174C174D4FF055
:102200008047984205D0B84203D0A04201D0A842EE
:1022100003D122F070064A683243984205D0B84292
:1022200003D0A04201D0A84203D122F44074CA686E
:1022300022434C6922F08002224302608A68C26213
:102240000A688262984201D10969016301214161F2
:10225000F0BD0000002C01400004004000080040D8
:1022600010B5846842EA032224F47F440A432243DF
:10227000826010BD826822F070020A4342F00701BA
:102280008160704710B5036A046A24F00104046297
:10229000846924F0F00444EA021423F00A020A4399
:1022A0008461026210BD10B5036A23F0100303625B
:1022B0008369046A23F4704343EA023224F0A003E2
:1022C00043EA01118261016210BD000070B504464D
:1022D00000680169E26821F44051114301612169FC
:1022E000A0680843616908432168CA6841F20C6329
:1022F0009A430243CA6020684169A26921F440718F
:10230000114341611E492068884202D1FFF71AF843
:1023100001E0FFF707F800EBC00101EB0012606875
:1023200064218000B2FBF0F3B3FBF1F36FF0180609
:102330007343B2FBF0F5B2FBF0F605EB83053223F5
:1023400003EB0515B5FBF1F5B6FBF1F605F0F0056D
:1023500005EB0615B2FBF0F6B2FBF0F0B0FBF1F0C6
:102360006FF01802504306EB800003EB0010B0FB47
:10237000F1F0216800F00F002844886070BD000073
:1023800000380140FEE7000070B5124E04460022FE
:1023900040213046FEF7B2FD5FF0000504F08000FA
:1023A000802815D0002280213046FEF7A7FD600668
:1023B000040E012240213046FEF7A0FD00224021FC
:1023C0003046FEF79BFD6D1CEDB2082DE6D370BDC7
:1023D0000122E8E7000C014010B50446FFF7ECFBD2
:1023E0007820FFF7D1FFFFF717FC0020FFF7CCFFA5
:1023F000FFF712FC2046FFF7C7FFFFF70DFCBDE813
:102400001040FFF7F3BB10B50446FFF7D5FB78206B
:10241000FFF7BAFFFFF700FC4020FFF7B5FFFFF71B
:10242000FBFB2046FFF7B0FFFFF7F6FBBDE81040CF
:10243000FFF7DCBB0907090E002804DB00F1E020F0
:1024400080F80014704700F00F0000F1E02080F8E1
:10245000141D704702E008C8121F08C1002AFAD1F3
:1024600070477047002001E001C1121F002AFBD114
:1024700070470000FEF756FDFFF778FEFFF724FCDB
:10248000FFF7AAFCFFF70AFCFFF7D6FBFFF770FC8B
:102490000A48FEF721F8322209490848FEF796FA61
:1024A0000848FFF7BBF9FFF7F9FCFDF7F1FFFDF76F
:1024B000CDFF00BFFFF702FEFCE700008000002018
:1024C0001C000020F40000200000000000000000BC
:1024D00001020304060708090000000001020304CA
:1024E00000250008000000201C0000005424000803
:1024F0001C2500081C0000208449000064240008FA
:102500000100000010000000000000000024F400A2
:0C251000030000000000000000000000BC
:04000005080000ED02
:00000001FF
