:020000040800F2
:10000000A0490020010100081F1E0008C11B0008B4
:100010001D1E0008E10200088D25000800000000F8
:10002000000000000000000000000000392100086E
:100030001B03000800000000BF2000087123000817
:100040001B0100081B0100081B0100081B01000820
:100050001B0100081B0100081B0100081B01000810
:100060001B0100081B0100081B010008E502000835
:100070001B0100081B0100081B0100081B010008F0
:100080001B0100081B010008910100081B0100086A
:100090001B0100081B0100081B0100081B010008D0
:1000A0001B0100081B0100081B0100081B010008C0
:1000B0001B010008F12300081B0100081B010008B8
:1000C0001B0100081B0100081B0100081B010008A0
:1000D0001B0100081B0100081B0100081B01000890
:1000E0001B0100081B0100081B010008DFF80CD0F1
:1000F00000F03CF8004800477D260008A049002099
:100100000648804706480047FEE7FEE7FEE7FEE7B1
:10011000FEE7FEE7FEE7FEE7FEE7FEE7ED23000869
:10012000ED0000080649074A0868504343F23902C7
:10013000104408604008704701490860704700009B
:100140001C0000206D4EC641D2B201E000F8012B28
:10015000491EFBD270470022F6E710B513460A4647
:1001600004461946FFF7F0FF204610BD064C074D28
:1001700006E0E06840F0010394E807009847103477
:10018000AC42F6D3FFF7B6FF102F0008302F00085F
:10019000014800F0CFBA00008400002070B504468A
:1001A00000688168C943C90717D1816821F001013E
:1001B000816000F0AFFE05460AE000BF00F0AAFE35
:1001C000401B022804D920688068C043C00706D0BD
:1001D00020688068C043C007F0D0002070BDA06ACE
:1001E00040F01000A062E06A40F00100E0620120EF
:1001F00070BD10B50146406A826A12F0500F05D0FA
:10020000006A026BBDE8104008461047816A41F45D
:100210000071816201688968C1F3424107290CD1EC
:10022000017B51B9816A21F480718162816AC904BC
:1002300003D4816A41F00101816200F03FFA10BDF0
:1002400010B5406A816A41F040018162C16A41F0A3
:100250000401C16200F06DFA10BD10B5406A00F0F3
:1002600067FA10BDF8B5002604460096006881685C
:10027000C943C9072DD0816841F00101816016484A
:1002800016490068B0FBF1F000E0401E0090002825
:10029000FBD100F03FFE054616E000BF00F03AFE3D
:1002A000401B022810D920688068C043C0070BD0CB
:1002B000A06A40F01000A062E06A40F00100E06235
:1002C00084F824600120F8BD20688068C043C0071E
:1002D000E4D10020F8BD00000C00002040420F00D7
:1002E000FEE70000014800F0FDBB0000B400002064
:1002F00030B590F840500124AC40C56B6C60046888
:1003000063604368102B036803D099600068C26083
:1003100030BD9A600068C16030BD7047F0B51149CA
:100320000022FF2601F560731020032501EBC214A3
:10033000C0270BE0102809D0112807D06E2805D05F
:100340006F2803D022B1072A05D103E0265402E02A
:100350000D5400E01F54401C7028EBDB521C082A8F
:10036000E2DBF0BD8401002072B6FEE72DE9F0412A
:1003700020480068FFF7E0FE1F4D204C31E00126C9
:10038000FFF7D0FE5A2190FBF1F201FB1200123070
:100390002060FFF7C7FE3C21801C90FBF1F201FBBF
:1003A00012026260002023682F6816E005EBC00E81
:1003B000DEF81010A1F1040C9C450DDA091D8B42EA
:1003C0000ADADEF814108C46091F914204DA0CF1A7
:1003D000040C624500DA0026401C8742E6DC012E50
:1003E00004D0A0680028CAD0BDE8F0810120A06038
:1003F000FAE7000014000020840500209445002046
:1004000070B5134C134D20692A68011D914217DB0A
:10041000001F904214DC60696968031D8B420FDB8A
:10042000001F88420CDCA86868B10020A860D0B228
:10043000C9B20423012201F043FE2068401C206061
:10044000A868002803D1BDE87040FFF78FBF70BDDA
:10045000840500209445002070B500240D4D08E06F
:1004600005EBC4000423017D007C002201F028FE7E
:10047000641C2868A042F3DC0748816829B101792F
:1004800000780423002201F01BFEBDE8704001F05B
:10049000F1BC0000840500209445002070B501F0F7
:1004A000CBFC01F0BDFCFFF739FF0D480321002212
:1004B0000160C0E90112122311460224C2600268E1
:1004C000521A03EB820500EBC102491CC2E9045435
:1004D00002688A42F3DCBDE87040FFF747BF0000C6
:1004E00084050020F8B500250446009590F8240006
:1004F000012808D0012084F824002046FFF74EFE92
:10050000060002D053E00220F8BDA06A20F4885013
:1005100040F00200A062022000F09AFD264909681E
:10052000B1FBF0F0400000E0401E00900028FBD13D
:100530002046FFF797FE2068816841F0080181603E
:1005400000F0E8FC074608E000F0E4FCC01B0A28C5
:1005500003D920688068000715D4206880680007E8
:10056000F2D42068816841F00401816000F0D2FC7F
:10057000074612E000F0CEFCC01B0A280DD9206807
:100580008068400709D5A06A20F0020040F0100002
:10059000A06284F824500120F8BD206880684007DC
:1005A000E8D4A06A20F0020040F00100A06284F8C4
:1005B00024503046F8BD00000C00002070470000B9
:1005C000F8B50024009490F824202546012A12D082
:1005D000012280F824204A681F23072A0DD20668CA
:1005E000776B521E02EB820293409F430B6893404D
:1005F0001F43776319E00220F8BD06680D2A0AD26E
:10060000376BD21F02EB820293409F430B689340EB
:100610001F43376309E0F76A0D3A02EB8202934009
:100620009F430B6893401F43F7620A6807230668DD
:100630000A2A0AD3F7680A3A02EB420293409F4320
:100640008B6893401F43F76008E0376902EB420272
:1006500093409F438B6893401F4337610A68102A79
:1006600001D0112A20D1124B02689A4217D1936807
:100670001B0219D4936843F400039360096810299E
:1006800012D10C490C4A0968B1FBF2F101EB81016E
:10069000490000E0491E00910029FBD104E0816A75
:1006A00041F020018162012480F824502046F8BDE9
:1006B000002401400C00002040420F0010B50068EB
:1006C000184988422CD10021174B0A46084600BF22
:1006D00033F81040401C214433F81040401C2244A1
:1006E0003228F5DB1920B1FBF0F1B2FBF0F04FF44A
:1006F000A57358435943020B090B4FF496730B48EB
:100700009A4201D300210AE01E2A01D8012106E005
:10071000994201D3022102E01E2901D80321016080
:1007200010BD000000240140200000201000002027
:100730007047704710B5044600684168890626D5A1
:100740000168890723D5A16AC90603D4A16A41F4C7
:100750000071A1628168C1F34241072910D1217B58
:1007600071B9416821F020014160A06A20F48070D5
:10077000A062A06AC00403D4A06A40F00100A06295
:100780002046FFF79BFF21686FF012000860206889
:10079000416809062ED5016849072BD5A16AC9060B
:1007A00003D4A16A41F40051A1628168C1F302310E
:1007B000072909D04168490515D48168C1F3424130
:1007C000072910D1217B71B9416821F08001416076
:1007D000A06A20F48050A062A06AC00503D4A06A79
:1007E00040F00100A0622046FFF7E8FE21686FF0AC
:1007F0000C0008602068416849060DD50068C007F4
:100800000AD0A06A40F48030A062204600F094F83C
:1008100021686FF00100086010BD00002DE9F04173
:100820004FF0000704003D467ED0A06A002628B99C
:10083000E66284F82460204600F080F82046FFF746
:10084000ADFCA16A01F01001014304D0A06A40F0A0
:100850001000A06268E0A16A21F4885141F0020111
:10086000A1626268E169237B0A4347EA43010A43C4
:10087000A1684FF48077B94208D0012906D0002141
:1008800094F814C0BCF1010F02D00AE03946F7E732
:10089000F3B1A36A43F02003A362E36A43F00103C8
:1008A000E3622368D3F804C02CF4694C4CEA010CD1
:1008B000C3F804C023689968DFF870C001EA0C012E
:1008C00011439960A168B9420BD0012909D00CE00D
:1008D000DFF85CC0A3690CEB43330B4343F40061C6
:1008E000DFE7218A0D05A5F580152168CB6A23F481
:1008F00070032B43CB62216889680E4B19409142EB
:1009000008D1E662A16A21F0020141F00101A16271
:10091000BDE8F081A06A20F0020040F01000A06263
:10092000E06A40F00100E0620120F1E7FDF7E1FF3D
:1009300000E0FFFFFE0E1FFF7047000070B586B09D
:1009400000250646009501950295039500681D490E
:10095000884235D11C49886940F4007088618869F3
:1009600000F400700490886940F004008861886990
:10097000694600F0040004900320009001901348A1
:1009800000F0D2F9134C1248C4E900058020C4E9F4
:10099000025040002061800060612020C4E906050B
:1009A000204600F049F908B1FFF7DEFC346200226E
:1009B00011461220666200F019FB122000F008FBBD
:1009C00006B070BD00240140001002400008014044
:1009D00008000240B40000202DE9F0478946044693
:1009E0003B4900683B4F0E1D9046884201D0B842FB
:1009F00007D1306810F4702F03D001252846BDE8D8
:100A0000F08794F8240001280CD0012084F82400F9
:100A10002046FFF727FC05004FF0000004D084F8C3
:100A20002400EBE70220EAE7A16A40F60162914365
:100A300041F48071A1622168B94218D1326812F480
:100A4000702F14D0A16A41F48011A1623168490568
:100A500005D5A16A21F4005141F48051A162A16A37
:100A6000C9040AD5E16A21F00601E16206E0A26A42
:100A700022F48012A2624968E9E7E06284F8240067
:100A8000216A15488862216A1448C862216A14489C
:100A9000086321686FF0020008602068816841F4F3
:100AA00080718160216843464A464C31206A00F0DB
:100AB000F1F820688168C1F342410729816803D0B9
:100AC00041F48011816099E741F4A001FAE7000048
:100AD0000024014000280140F30100085B020008E7
:100AE000410200082DE9F05FC16B0C6801680B68DA
:100AF000D0F840C0042202FA0CF2494DDFF824A1DC
:100B0000494E4A4FDFF828B1DFF828E122422CD0C5
:100B10005A072AD50A68920603D40A6822F004020A
:100B20000A600168A94201D1042219E0514501D1AE
:100B3000402215E0B14202D14FF4806210E0B94288
:100B400002D14FF480420BE0594502D14FF480228C
:100B500006E0714502D14FF4800201E04FF080625F
:100B60002F4908394A60C16A3BE04FF0020808FA91
:100B70000CF818EA040F4FF000094FF0010235D0CD
:100B80005FEA837832D50B689B0605D40B6823F0A7
:100B90000A030B6080F821200168A94201D10222DA
:100BA00019E0514501D1202215E0B14202D14FF4A4
:100BB000007210E0B94202D14FF400520BE05945E7
:100BC00002D14FF4003206E0714502D14FF4001219
:100BD00001E04FF00072124908394A6080F8209015
:100BE000816A00291AD0BDE8F05F0847082505FA98
:100BF0000CF5254212D01B0710D50B6823F00E030D
:100C00000B6090F84010C36B02FA01F159608263E7
:100C100080F8212080F82090016BE2E7BDE8F09F8A
:100C2000080002401C000240300002404400024024
:100C3000580002406C00024030B528B308C8134980
:100C400014221944B1FBF2F18900C1631049816398
:100C5000022141771A6843F6F0718A43D0E9001403
:100C60002143D0E902452C432143046921434469CF
:100C7000214384692143114319600021416301220A
:100C800042770177084630BD012030BDF8FFFDBF37
:100C90000000024070B5044690F8200000250128AD
:100CA0000CD0012084F8200094F821600020012E4F
:100CB00006D084F820000225284670BD022070BDB1
:100CC000022684F82160A0632068066826F00106E9
:100CD00006602046FFF70CFBE06A002820680168E8
:100CE00002D041F00E0106E021F00401016020680D
:100CF000016841F00A0101602068016841F00101CA
:100D00000160D9E770B5044600F004F90546601C9F
:100D100002D004480078044400F0FCF8401BA042D4
:100D2000FAD370BD000000202DE9F84FDFF8B8912C
:100D3000002409F1040A0AF1040B23460F270BF1E2
:100D4000040EC9E00125A5402A40AA427DD1674E84
:100D5000D1F804C0ACEB0608B44532D014DCBCF1C9
:100D6000030F3AD009DCBCF1000F2AD0BCF1010F0F
:100D70001CD0BCF1020F31D11DE0BCF1110F17D016
:100D8000BCF1120F2AD119E0B8F5881F19D006DC82
:100D9000B8F5803F15D0B8F5801F1FD111E0B8F528
:100DA000001F0ED0B8F5041F18D10AE0CB6815E07B
:100DB000CB681B1D12E0CB6808330FE0CB680C3307
:100DC0000CE08B682BB1012B4FF0080303D0456179
:100DD00004E0042302E0056100E00023FF2A01D8BB
:100DE000064601E000F104064FEA840501D9A5F1A9
:100DF0002005D6F8008007FA05FC28EA0C0803FA5B
:100E000005F548EA0508C6F800804D68ED0062D592
:100E1000374DAE6946F00106AE61AD6924F00306B8
:100E200005F001050095334D06EB050CDCF8085084
:100E3000A607360F07FA06F825EA0805DFF8B88096
:100E4000404503D14FF0000817E044E0DFF8AC80E4
:100E5000404502D14FF001080FE0DFF8A480404583
:100E600002D14FF0020808E0DFF89880404502D137
:100E70004FF0030801E04FF0040808FA06F848EACA
:100E80000508CCF808804D68D9F80060ED034D46A0
:100E900001D5164300E096432E604D68DAF80060F5
:100EA000AD03554601D5164300E096432E604D68CC
:100EB000DBF80060ED025D4601D5164300E0964385
:100EC0002E604D68DEF80060AD02754601D5164310
:100ED00000E096432E60641C0D682A46E5407FF4CE
:100EE00031AFBDE8F88F0000000401400000111090
:100EF000001002400000014000080140000C0140C9
:100F000000100140001401400AB10161704709045A
:100F1000FBE70000014880687047000000000020E7
:100F20000248816802781144816070470000002007
:100F3000074810B5016841F010010160032000F07E
:100F400075F80F2000F006F800F024F8002010BD1E
:100F50000020024070B50D4D04464FF47A71287898
:100F6000B1FBF0F00A490968B1FBF0F000F0C6FBF4
:100F700048B9102C07D200222146501E00F036F846
:100F800000206C6070BD012070BD000000000020DA
:100F90000C0000200C4808B5816941F00101816115
:100FA000816901F001010091C16941F08051C16185
:100FB000C06900F0805000900448416821F0E06171
:100FC00041F08061416008BD001002400000014016
:100FD000002809DB00F01F02012191404009800038
:100FE00000F1E020C0F8001170470000F0B40E4B93
:100FF0001B680C46C3F30223C3F10705042D00D977
:101000000425191D072901D2002300E0DB1E01265B
:1010100006FA05F1491E214099409E40761E164071
:101020003143F0BC01F00ABB0CED00E0064900F0D2
:10103000070208684FF6FF03184040EA0220034AFF
:1010400010430860704700000CED00E00000FA0556
:1010500010B529A401461DCC86B08DE81D002AA03C
:101060002A4C006804900020012923D002293AD09C
:1010700010291DD161682268D20119D5C1F38342BC
:10108000C9031DF8020009D5616804AAC1F34041F3
:10109000515C1F4AB2FBF1F1484301E01D4948434E
:1010A0006168490204D440005FF00301B0FBF1F035
:1010B00006B010BD226AC2F30121012903D19207B3
:1010C00001D5C803F4E7022905D1626A920702D567
:1010D00049F64040ECE70329EAD121688903E7D5C6
:1010E0004FF22440E4E700F033F96168C1F3813145
:1010F000491C4900DAE70000020304050607080955
:101100000A0B0C0D0E0F101001020000001002401F
:1011100000127A0000093D002DE9F84305460078E9
:10112000354CC00754D0E0690026C00008D4E069FF
:1011300040F08050E061E069012600F080500090AE
:101140002E480168C90512D40168804641F48071B7
:101150000160FFF7DFFE074605E000BFFFF7DAFE9C
:10116000C01B642823D8D8F80000C005F6D5206A33
:1011700010F4407021D0A98801F4407181421CD044
:10118000206A1F49012220F440700A6000220A6090
:101190002062C00711D0FFF7BDFE074641F2883834
:1011A00008E000BFFFF7B6FEC11B414502D903208E
:1011B000BDE8F883206A8007F4D5206A696820F4C6
:1011C0004070084320621EB1E06920F08050E06169
:1011D0002878800705D56068A96820F44040084356
:1011E00060602878C00605D56068E96820F4800052
:1011F000084360600020DBE7001002400070004000
:10120000400442422DE9F0470F46050061D0434EAD
:10121000306800F00700B84209D2306820F00700BB
:1012200038433060306800F00700B84251D1286878
:101230003B4C810712D5400703D5606840F4E0605D
:1012400060602878000703D5606840F460506060F3
:101250006068A96820F0F000084360602878C00743
:1012600028D06868012810D02168022810D089078A
:1012700000292EDA616821F0030101436160FFF764
:1012800049FE804641F288390DE021688903EFE785
:101290008901EDE7FFF73EFEA0EB0801494502D9C1
:1012A0000320BDE8F0876068696800F00C00B0EBCF
:1012B000810FEFD1306800F00700B8420BD93068D9
:1012C00020F0070038433060306800F00700B84273
:1012D00001D00120E5E72878400705D56068E96876
:1012E00020F4E060084360602878000706D5606855
:1012F000296920F4605040EAC100606000F038F8CD
:101300006168084AC1F30311515CC840064908608E
:1013100006480068FFF71EFE0020C2E700200240DA
:1013200000100240E02600080C000020040000200D
:101330000448054900684968044AC1F30221515C28
:10134000C84070470C00002000100240F026000842
:101350000448054900684968044AC1F3C221515C48
:10136000C84070470C00002000100240F026000822
:1013700012A185B00FC98DE80F0014A0144A0068AF
:1013800004905168134801F00C03042B10D0082B73
:101390000ED1C1F38343C9031DF803000AD5516878
:1013A00004AAC1F34041515C0A4A5043B0FBF1F03A
:1013B00005B0704708494843FAE7000002030405F6
:1013C000060708090A0B0C0D0E0F10100102000091
:1013D0000010024000127A0000093D002DE9F84F8C
:1013E000040070D02078C04DC00749D06868C0F3B1
:1013F0008100012807D06868C0F38100022809D164
:101400006868C00306D52868800339D5606800285D
:10141000E7D035E06068B0F5803F0BD010B1B0F593
:10142000A02F11D0286820F480302860286820F48C
:10143000802002E0286840F480302860606890B125
:10144000FFF768FD06460AE0286840F4802028601F
:10145000F0E700BFFFF75EFD801B642873D82868A3
:101460008003F7D50CE0FFF755FD064605E000BF09
:10147000FFF750FD801B6428F0D828688003F7D45C
:1014800020789A4E80074FF001094FF0000839D5B7
:10149000686810F00C0F07D06868C0F3810002285C
:1014A00009D16868C00306D42868800714D520696C
:1014B000012808D110E02069B0B1C6F80090FFF70C
:1014C00029FD074605E00AE1FFF724FDC01B0228BD
:1014D000C4D828688007F7D52868616920F0F8002B
:1014E00040EAC10028600DE0C6F80080FFF712FD59
:1014F000074604E0FFF70EFDC01B022823D828682A
:101500008007F7D4207800072CD57948A169D9B194
:10151000C0F80090FFF7FEFC074604E0FFF7FAFC76
:10152000C01B02280FD8686A8007F7D571484FF4AE
:10153000FA510068B0FBF1F0009000BF0098411E26
:101540000091FAD20EE080E0C0F80080FFF7E2FCE4
:10155000074604E0FFF7DEFCC01B022875D8686A66
:101560008007F7D42078400760D5E8690027C000DD
:1015700008D4E86940F08050E861E869012700F08C
:10158000805000905C480168C90513D40168834607
:1015900041F480710160FFF7BDFC824606E000BFA8
:1015A000FFF7B8FCA0EB0A0064284ED8DBF8000077
:1015B000C005F5D5E06801280AD008B1052813D088
:1015C000286A20F001002862286A20F0040002E066
:1015D000286A40F001002862E06841F2883B98B137
:1015E000FFF798FC82460BE0286A40F0040028626E
:1015F000EEE700BFFFF78EFCA0EB0A0159455AD871
:10160000286A8007F6D50CE0FFF784FC824605E0E7
:10161000FFF780FCA0EB0A0159454CD8286A8007E7
:10162000F6D41FB1E86920F08050E861E06988B322
:101630006968C1F38101022944D00228C6F860809C
:1016400004D0FFF767FC044638E034E0FFF762FCA3
:10165000074604E0FFF75EFCC01B02282BD8286871
:101660008001F7D4206AB0F5803F05D16868A16891
:1016700020F4003008436860D4E908010843696831
:1016800021F4741108436860C6F86090FFF742FCCB
:10169000044606E025E000BFFFF73CFC001B0228E3
:1016A00009D828688001F7D51BE000BFFFF732FC9E
:1016B000001B022802D90320BDE8F88F28688001AA
:1016C000F4D40EE00128F7D06868226A00F4803173
:1016D000914204D1616A00F47010884201D0012067
:1016E000EAE70020E8E70000001002400000424264
:1016F000800442420C0000200070004010B5401EE3
:10170000B0F1807F01D3012010BD4FF0E024606173
:101710000F21601700F092FF0020A06107202061D8
:10172000002010BD7047704770B590F83C20012A2A
:1017300026D0012480F83C40022280F83D20036836
:101740005A689D6822F070060A6832435A600D4B51
:1017500002689A4208D0B2F1804F05D00A4B9A42F3
:1017600002D00A4B9A4204D1496825F080031943FC
:10177000916080F83D40002180F83C10084670BD23
:10178000022070BD002C0140000400400008004011
:1017900010B5040003D094F83D0010B107E001201B
:1017A00010BD002084F83C00204600F01FF8022005
:1017B00084F83D00211D206800F020FE012084F8FF
:1017C000460084F83E0084F83F0084F8400084F826
:1017D000410084F8420084F8430084F8440084F80F
:1017E000450084F83D00002010BD000008B50068E9
:1017F0000B49884212D10B48C16941F00201C16115
:10180000C069002200F00200009011461D20FFF781
:10181000EDFBBDE808401D20FFF7DABB08BD000066
:10182000000400400010024090F83D10012901D052
:1018300001207047022180F83D100168CA6842F01B
:101840000102CA6000680B49884208D0B0F1804F9D
:1018500005D00949884202D00849884204D18168EC
:1018600001F00701062903D0016841F00101016080
:1018700000207047002C0140000400400008004098
:1018800070B5044690F83C00012817D0012584F873
:101890003C50022084F83D002068826822F07702E4
:1018A00022F47F4282600868502830D00DDC202866
:1018B0004DD005DC98B310283BD148E0022070BD24
:1018C000302844D0402834D139E0602828D070280E
:1018D00006D0B0F5805F2CD0B0F5005F29D10AE0CA
:1018E000CB68D1E90121206800F0BEFD2068816845
:1018F00041F0770109E0CB68D1E90121206800F0CF
:10190000B3FD2068816841F48041816011E0CA68BC
:101910004968206800F0BAFD5021206807E016E011
:10192000CA684968206800F0C2FD6021206800F0A4
:10193000A5FD84F83D50002084F83C0070BDCA68C5
:101940004968206800F0A2FD40212068EFE7226886
:1019500001461046EBE7704770B504460068016920
:101960004FF00005C943890715D4C168C9438907E9
:1019700011D4E91E01610120207720688069800769
:10198000204602D0FFF7E7FF04E000F098F8204679
:1019900000F096F8257720680169C943490717D4F4
:1019A000C168C943490713D46FF0040101610220E3
:1019B00020772068806910F4407F204602D0FFF72E
:1019C000CAFF04E000F07BF8204600F079F82577A4
:1019D00020680169C943090716D4C168C9430907CA
:1019E00012D46FF008010161042020772068C069DB
:1019F0008007204602D0FFF7AEFF04E000F05FF85A
:101A0000204600F05DF8257720680169C943C906C2
:101A100017D4C168C943C90613D46FF0100101611E
:101A2000082020772068C06910F4407F204602D04B
:101A3000FFF791FF04E000F042F8204600F040F884
:101A4000257720680169C943C90708D1C168C9431E
:101A5000C90704D1891E0161204600F033F82068CF
:101A60000169C943090609D4C168C943090605D4F7
:101A70006FF0800101612046FFF754FE2068016984
:101A8000C943490609D4C168C943490605D46FF062
:101A900040010161204600F029F820680169C9432E
:101AA00089060BD4C168C943890607D46FF02001A9
:101AB00001612046BDE87040FFF735BE70BD70473C
:101AC00070470000074900680968884209D1064943
:101AD00042F21072086890FBF2F302FB1300401C04
:101AE00008607047F800002014000020704770B5AF
:101AF000040004D094F83D00002510B106E0012058
:101B000070BD84F83C50204600F022F8242084F870
:101B10003D002068C16821F40051C160204600F0FA
:101B2000D9FC2068016921F4904101612068416974
:101B300021F02A0141612068C16841F40051C1606F
:101B40002564202084F83D0084F83E00002070BD0C
:101B500030B585B000240094019402940394006889
:101B60001449884224D11448816941F4804181613B
:101B7000816901F480410491816941F0040181612E
:101B800080690E4D00F0040004904FF40070009046
:101B9000022001900320039069462846FFF7C4F80D
:101BA0002815CDE90004694628460294FFF7BCF8E1
:101BB00005B030BD0038014000100240000801406F
:101BC000FEE7000010B50B4C012240212046FFF734
:101BD0009BF9012280212046FFF796F900228021FF
:101BE0002046FFF791F920460022BDE81040402131
:101BF000FFF78AB9000C014010B5094C01224021C1
:101C00002046FFF781F9002280212046FFF77CF96A
:101C100020460122BDE810408021FFF775B9000081
:101C2000000C014010B5064C012240212046FFF770
:101C30006BF920460022BDE810404021FFF764B94F
:101C4000000C0140FEB50025164800950195144989
:101C500002950160891581600124047305750226CF
:101C600006614FF460214560C161FEF7D7FD08B100
:101C7000FEF77AFBCDE9005469460A480294FEF764
:101C80009FFC08B1FEF770FBCDE9004669460548A8
:101C9000FEF796FC002801D0FEF766FBFEBD0000B3
:101CA0000024014084000020094808B5416941F042
:101CB000010141614069002200F0010000901146DD
:101CC0000B20FFF793F9BDE808400B20FFF780B920
:101CD000001002402DE9F04186B000242448009411
:101CE000019402940394816941F01001816181693A
:101CF00001F010010491816941F020018161816945
:101D000001F020010491816941F004018161816940
:101D100001F004010491816941F008018161806949
:101D2000144F00F008004FF400550490002229469B
:101D30003846FFF7E9F8DFF840800022C02140462E
:101D4000FFF7E2F80095022601250396CDE901543C
:101D500069463846FEF7E8FFC020CDE90005CDE929
:101D6000024669464046FEF7DFFF06B0BDE8F08157
:101D70000010024000100140000C014010B586B078
:101D80000024174800940194029403940494134986
:101D90000594016041F61F41C0E9011442F210713F
:101DA000C0E903148461FFF7F3FC08B1FEF7DCFA25
:101DB0004FF48050009069460948FFF761FD08B173
:101DC000FEF7D2FA049404A905480594FFF7ACFC89
:101DD000002801D0FEF7C8FA06B010BD000400408C
:101DE000F80000200C4810B50A4901604FF4E131B9
:101DF0004160002181600C22C160C0E90412816150
:101E0000C161FFF774FE002803D0BDE81040FEF763
:101E1000ABBA10BD0038014040010020FEE7FEE7EC
:101E200010B5002480210348FEF795F9641C082CA6
:101E3000F8DB10BD8401002070B50024002104F1FE
:101E4000B00000F036F90021084600F032F9002118
:101E5000102000F02EF900250121002000F029F9C2
:101E60006D1CEDB2802DF7D3641CE4B2082CE5D3D1
:101E700070BD00002DE9F0410A4F0025002407EB5A
:101E8000C516E9B2E0B200F085F8305D012100F03E
:101E900010F9641C802CF4DB6D1C082DEEDBBDE812
:101EA000F08100008401002010B50122C0213848D3
:101EB000FFF72AF80021AE2000F0FBF800210846C9
:101EC00000F0F7F80021102000F0F3F80021402086
:101ED00000F0EFF80021B02000F0EBF800218120A5
:101EE00000F0E7F80021FF2000F0E3F80021A12036
:101EF00000F0DFF80021A62000F0DBF80021A82088
:101F000000F0D7F800213F2000F0D3F80021C820CE
:101F100000F0CFF80021D32000F0CBF800210846D4
:101F200000F0C7F80021D52000F0C3F80021802080
:101F300000F0BFF80021D82000F0BBF800210520F8
:101F400000F0B7F80021D92000F0B3F80021F1200B
:101F500000F0AFF80021DA2000F0ABF800211220E9
:101F600000F0A7F80021DB2000F0A3F800213020CA
:101F700000F09FF800218D2000F09BF80021142034
:101F800000F097F80021BDE81040AF2000F091B8B4
:101F9000000C014010B50A460446002102F1B000D1
:101FA00000F087F8102040EA1410002100F081F8BA
:101FB00004F00F00BDE81040002100F07AB80000E6
:101FC0002DE9F041203A00240D468046D6B27F2804
:101FD00003D900208D1C8046EDB2102B294610D06D
:101FE000FFF7D8FF164906EB460001EB400501213B
:101FF000285D00F05EF8641CE4B2062CF7D3BDE85F
:10200000F081FFF7C7FF0F4F04EB06100121385C8A
:1020100000F04FF8641CE4B2082CF5D36D1CE9B253
:102020004046FFF7B7FF002404EB061038440121B7
:10203000007A00F03EF8641CE4B2082CF4D3DEE72A
:10204000F8260008202900082DE9F05F0026DDF8B9
:1020500028901D4692468B46804634464FEA5907E3
:1020600023E0281B401EC1B20A2000F031FBBAFB5E
:10207000F0F00A21B0FBF1F201FB120026B9691E53
:102080008C4201DA38B101263030C2B207FB04803D
:10209000C0B24B4604E007FB0480C0B24B4620228E
:1020A0005946FFF78DFF641CE4B2AC42D9D3BDE8BA
:1020B000F09FC0B209B100F0AABA00F091BA70471F
:1020C0002DE9F04389460025DFF868802DE000BF48
:1020D00009EB0501CC1701EB5474C4F3C70624F0D7
:1020E0000704091BCFB20124002102E06406240E7C
:1020F000491CB942FADB002108EBC61712E046186A
:10210000802E0EDA12B1012A05D00AE017F806C0B7
:102110004CEA040C03E017F806C02CEA040C07F89C
:1021200006C0491C9942EADB6D1C9D42D0DBBDE82C
:10213000F0830000840100207047000008B51020E3
:10214000009004480223194602681420FFF77CFF20
:1021500008BD0000840500200D4802680D48416854
:102160004AB1012A0BD0022A0ED0032A0BD1022930
:1021700009D0032106E0012905D0002102E0002951
:1021800001D00121416070470329FCD00221F9E709
:10219000100000208405002014490868082801DC8C
:1021A000002010E0A0F10902042A01D801200AE071
:1021B000A0F10E02092A01D8022004E0172801DC50
:1021C000886801E00320886040B1012808D0022817
:1021D00008D0032808D11420FEF794BD9620FBE711
:1021E0006420F9E73220F7E77047000084050020FB
:1021F000134810B5C06898B101281FD11149486033
:10220000FFF70EFEFFF718FE4FF4FA70FEF77AFDA7
:10221000FFF794FFBDE810404FF4FA50FEF772BD8F
:10222000FEF77CF800F010F8FEF716F9FEF7E8F874
:10223000FFF792FFBDE81040FFF7AEBF10BD0000F2
:1022400084050020140000202DE9F041474CE0688F
:10225000002838D12068042304EBC0000122017B50
:10226000007AFFF72DFF206806E000BF04EBC001F5
:102270008A680A61CA684A61401E0028F6DC616803
:10228000012079B3012956D002291ED003291AD181
:102290002169091D21616E2902DB1221C4E90301B4
:1022A000D4E90435012122680BE000BF04EBC1062C
:1022B00037693F1FBB4203D17669B54200D1E06068
:1022C000491C8A42F2DCBDE8F0812169091F2161C5
:1022D000122902DA6E21C4E90301D4E9043501218F
:1022E00022680BE00DE000BF04EBC1063769BB427A
:1022F00003D17669B54200D1E060491C8A42F3DC23
:10230000E1E76169091F6161022902DA3E21616129
:10231000E060D4E904230121256809E004EBC1064B
:102320003769BA4203D17669B34200D1E060491CF3
:102330008D42F3DCC7E76169091D61613E2902DB5B
:1023400002216161E060D4E90452012123680AE0BE
:1023500004EBC1063769BD4204D17669361FB2422B
:1023600000D1E060491C8B42F2DCACE78405002020
:10237000FEF7D6BD30B593B028216846FDF7EBFED9
:1023800014210AA8FDF7E7FE002501200F951095FE
:102390001195010412958DE8230004904FF4E0108C
:1023A000CDE90810022407946846FFF717F808B132
:1023B00072B6FEE70AA90F2081E831004FF4806071
:1023C000CDE90D0502210AA8FEF71CFF08B172B67F
:1023D000FEE74FF4004011900F940FA8FEF79CFE0B
:1023E000002801D072B6FEE713B030BD7047000080
:1023F0000148FFF7B1BA0000F8000020F0B502680C
:10240000164B174C174D4FF08047984205D0B842F5
:1024100003D0A04201D0A84203D122F070064A683E
:102420003243984205D0B84203D0A04201D0A8421E
:1024300003D122F44074CA6822434C6922F080021E
:10244000224302608A68C2620A688262984201D1AD
:102450000969016301214161F0BD0000002C0140C8
:10246000000400400008004010B5846842EA0322DE
:1024700024F47F440A432243826010BD826822F024
:1024800070020A4342F007018160704710B5036A89
:10249000046A24F001040462846924F0F00444EA2C
:1024A000021423F00A020A438461026210BD10B5CF
:1024B000036A23F0100303628369046A23F4704300
:1024C00043EA023224F0A00343EA0111826101626F
:1024D00010BD000070B5044600680169E26821F48F
:1024E0004051114301612169A068084361690843B3
:1024F0002168CA6841F20C639A430243CA602068AB
:102500004169A26921F44071114341611E4920686B
:10251000884202D1FEF71CFF01E0FEF709FF00EB45
:10252000C00101EB0012606864218000B2FBF0F38F
:10253000B3FBF1F36FF018067343B2FBF0F5B2FB97
:10254000F0F605EB8305322303EB0515B5FBF1F53A
:10255000B6FBF1F605F0F00505EB0615B2FBF0F65B
:10256000B2FBF0F0B0FBF1F06FF01802504306EB55
:10257000800003EB0010B0FBF1F0216800F00F00C9
:102580002844886070BD000000380140FEE700006C
:1025900070B5124E0446002240213046FEF7B4FCCE
:1025A0005FF0000504F08000802815D00022802113
:1025B0003046FEF7A9FC6006040E01224021304699
:1025C000FEF7A2FC002240213046FEF79DFC6D1C68
:1025D000EDB2082DE6D370BD0122E8E7000C014002
:1025E00010B50446FFF7EEFA7820FFF7D1FFFFF7AA
:1025F00019FB0020FFF7CCFFFFF714FB2046FFF785
:10260000C7FFFFF70FFBBDE81040FFF7F5BA10B5A5
:102610000446FFF7D7FA7820FFF7BAFFFFF702FB6F
:102620004020FFF7B5FFFFF7FDFA2046FFF7B0FFA8
:10263000FFF7F8FABDE81040FFF7DEBA0907090E08
:10264000002804DB00F1E02080F80014704700F05F
:102650000F0000F1E02080F8141D704702E008C868
:10266000121F08C1002AFAD170477047002001E00C
:1026700001C1121F002AFBD170470000FEF758FC71
:10268000FFF778FEFFF726FBFFF7ACFBFFF70CFB2D
:10269000FFF7D8FAFFF772FB0A48FDF723FF322253
:1026A00009490848FEF798F90848FFF7BDF8FFF711
:1026B000FBFBFDF7F3FEFDF7CFFE00BFFFF798FD34
:1026C000FCE700008400002020000020F80000202B
:1026D0000246012000E05043491EC9B2FBD27047B8
:1026E00000000000000000000102030406070809C2
:1026F00000000000010203040000000000000000D0
:10270000002F000000000700070000147F147F1452
:1027100000242A7F2A1200626408132300364955D8
:10272000225000000503000000001C2241000000B0
:1027300041221C000014083E08140008083E080846
:10274000000000A0600000080808080800006060A1
:102750000000002010080402003E5149453E0000E0
:10276000427F4000004261514946002141454B31C2
:10277000001814127F10002745454539003C4A498E
:102780004930000171090503003649494936000600
:102790004949291E00003636000000005636000068
:1027A00000081422410000141414141400004122E3
:1027B000140800020151090600324959513E007CBB
:1027C0001211127C007F49494936003E41414122A5
:1027D000007F4141221C007F49494941007F09098E
:1027E0000901003E4149497A007F0808087F00003E
:1027F000417F4100002040413F01007F08142241F9
:10280000007F40404040007F020C027F007F0408B0
:10281000107F003E4141413E007F09090906003E0C
:102820004151215E007F0919294600464949493135
:102830000001017F0101003F4040403F001F204058
:10284000201F003F4038403F006314081463000716
:102850000870080700615149454300007F4141006D
:1028600000552A552A55000041417F00000402010D
:1028700002040040404040400000010204000020EB
:1028800054545478007F4844443800384444442029
:1028900000384444487F00385454541800087E09D6
:1028A00001020018A4A4A47C007F0804047800009E
:1028B000447D4000004080847D00007F102844005B
:1028C0000000417F4000007C04180478007C08046C
:1028D000047800384444443800FC242424180018A8
:1028E000242418FC007C0804040800485454542094
:1028F00000043F444020003C4040207C001C20401D
:10290000201C003C4030403C004428102844001C5F
:10291000A0A0A07C004464544C4414141414141457
:1029200000000000000000000000000000000000A7
:10293000000000F80000000000000033300000003C
:1029400000100C06100C0600000000000000000043
:1029500040C07840C0784000043F04043F040400B5
:10296000007088FC08300000001820FF211E0000C5
:10297000F008F000E018000000211C031E211E00DA
:1029800000F00888700000001E2123241927211060
:1029900010160E0000000000000000000000000003
:1029A000000000E0180402000000000718204000AA
:1029B00000020418E000000000402018070000009A
:1029C000404080F0804040000202010F01020200FE
:1029D000000000F0000000000101011F01010100E2
:1029E000000000000000000080B070000000000047
:1029F00000000000000000000001010101010101D0
:102A00000000000000000000003030000000000066
:102A1000000000008060180400601806010000003B
:102A200000E010080810E000000F102020100F0038
:102A3000001010F8000000000020203F20200000BF
:102A40000070080808887000003028242221300017
:102A500000300888884830000018202020110E001F
:102A60000000C02010F8000000070424243F2400C8
:102A700000F80888880808000019212020110E009D
:102A800000E0108888180000000F112020110E00AF
:102A900000380808C83808000000003F00000000A7
:102AA0000070880808887000001C222121221C0068
:102AB00000E010080810E0000000312222110F0091
:102AC000000000C0C0000000000000303000000026
:102AD0000000008000000000000080600000000096
:102AE00000008040201008000001020408102000AF
:102AF00040404040404040000404040404040400FA
:102B0000000810204080000000201008040201008E
:102B1000007048080808F00000000030360100008E
:102B2000C030C828E810E0000718272423140B0041
:102B30000000C038E0000000203C230202273820BB
:102B400008F8888888700000203F202020110E009F
:102B5000C030080808083800071820202010080096
:102B600008F808080810E000203F202020100F007F
:102B700008F88888E8081000203F2020232018004B
:102B800008F88888E8081000203F200003000000B3
:102B9000C03008080838000007182020221E020054
:102BA00008F808000008F808203F210101213F2013
:102BB000000808F8080800000020203F202000003E
:102BC00000000808F8080800C08080807F0000002E
:102BD00008F888C028180800203F20012638200067
:102BE00008F8080000000000203F202020203000CE
:102BF00008F8F800F8F80800203F003F003F2000E8
:102C000008F830C00008F808203F200007183F00EF
:102C1000E01008080810E0000F10202020100F001E
:102C200008F808080808F000203F21010101000011
:102C3000E01008080810E0000F18242438504F0056
:102C400008F8888888887000203F2000030C302016
:102C500000708808080838000038202121221C0054
:102C6000180808F8080818000000203F200000009D
:102C700008F808000008F808001F202020201F0086
:102C80000878880000C83808000007380E010000E6
:102C9000F80800F80008F800033C0700073C0300B0
:102CA000081868808068180820302C03032C302016
:102CB0000838C800C83808000000203F2000000085
:102CC00010080808C83808002038262120201800DD
:102CD000000000FE020202000000007F40404000B1
:102CE000000C30C000000000000000010638C000E9
:102CF00000020202FE000000004040407F00000091
:102D000000000402020204000000000000000000B5
:102D100000000000000000008080808080808080B3
:102D2000000202040000000000000000000000009B
:102D300000008080808000000019242222223F2091
:102D400008F8008080000000003F112020110E00D4
:102D50000000008080800000000E11202020110063
:102D6000000000808088F800000E112020103F2015
:102D70000000808080800000001F22222222130099
:102D8000008080F0888888180020203F20200000E4
:102D90000000808080808000006B94949493600099
:102DA00008F8008080800000203F210000203F20A4
:102DB00000809898000000000020203F20200000A4
:102DC000000000809898000000C08080807F000094
:102DD00008F8000080808000203F24022D30200071
:102DE000000808F8000000000020203F202000001C
:102DF0008080808080808000203F20003F20003F36
:102E00008080008080800000203F210000203F2043
:102E10000000808080800000001F202020201F00F4
:102E2000808000808000000080FFA12020110E0023
:102E30000000008080808000000E112020A0FF8014
:102E4000808080008080800020203F2120000100C1
:102E50000000808080808000003324242424190016
:102E6000008080E0808000000000001F2020000023
:102E70008080000000808000001F202020103F2064
:102E8000808080000080808000010E3008060100F4
:102E900080800080008080800F300C030C300F0099
:102EA00000808000808080000020312E0E312000C4
:102EB000808080000080808080818E7018060100F4
:102EC00000808080808080000021302C2221300012
:102ED00000000000807C020200000000003F404033
:102EE00000000000FF00000000000000FF000000E4
:102EF0000002027C800000000040403F0000000013
:102F000000060101020204040000000000000000AD
:102F1000302F000800000020200000005C26000880
:102F2000502F000820000020804900006C26000877
:102F30000100000010000000000000000024F40068
:102F4000030000000000000000000000000000007E
:04000005080000ED02
:00000001FF
