:020000040800F2
:1000000068300020010100087B1A00085B18000816
:10001000791A0008E10200081D1F00080000000016
:10002000000000000000000000000000B51C0008F7
:100030001B03000800000000271C0008811D0008A9
:100040001B0100081B0100081B0100081B01000820
:100050001B0100081B0100081B0100081B01000810
:100060001D0300081B0100081B010008E502000831
:100070001B0100081B0100081B0100081B010008F0
:100080001B0100081B010008910100081B0100086A
:100090001B0100081B0100081B0100081B010008D0
:1000A0001B0100081B0100081B0100081B010008C0
:1000B0001B0100081B0100081B0100081B010008B0
:1000C0001B0100081B0100081B0100081B010008A0
:1000D0001B0100081B0100081B0100081B01000890
:1000E0001B0100081B0100081B010008DFF80CD0F1
:1000F00000F03CF800480047552000086830002018
:100100000648804706480047FEE7FEE7FEE7FEE7B1
:10011000FEE7FEE7FEE7FEE7FEE7FEE7FD1D00085F
:10012000ED0000080649074A0868504343F23902C7
:10013000104408604008704701490860704700009B
:10014000140000206D4EC641D2B201E000F8012B30
:10015000491EFBD270470022F6E710B513460A4647
:1001600004461946FFF7F0FF204610BD064C074D28
:1001700006E0E06840F0010394E807009847103477
:10018000AC42F6D3FFF7B6FFC0200008E02000081D
:10019000014800F07BBA00008000002070B50446E2
:1001A00000688168C943C90717D1816821F001013E
:1001B000816000F087FE05460AE000BF00F082FE85
:1001C000401B022804D920688068C043C00706D0BD
:1001D00020688068C043C007F0D0002070BDA06ACE
:1001E00040F01000A062E06A40F00100E0620120EF
:1001F00070BD10B50146406A826A12F0500F05D0FA
:10020000006A026BBDE8104008461047816A41F45D
:100210000071816201688968C1F3424107290CD1EC
:10022000017B51B9816A21F480718162816AC904BC
:1002300003D4816A41F00101816200F0EBF910BD45
:1002400010B5406A816A41F040018162C16A41F0A3
:100250000401C16200F019FA10BD10B5406A00F047
:1002600013FA10BDF8B500260446009600688168B0
:10027000C943C9072DD0816841F00101816016484A
:1002800016490068B0FBF1F000E0401E0090002825
:10029000FBD100F017FE054616E000BF00F012FE8D
:1002A000401B022810D920688068C043C0070BD0CB
:1002B000A06A40F01000A062E06A40F00100E06235
:1002C00084F824600120F8BD20688068C043C0071E
:1002D000E4D10020F8BD00000C00002040420F00D7
:1002E000FEE70000014800F0A9BB0000B0000020BC
:1002F00030B590F840500124AC40C56B6C60046888
:1003000063604368102B036803D099600068C26083
:1003100030BD9A600068C16030BD7047042000F0B5
:10032000C7BC72B6FEE7000010B5FFF7FBFEC117B1
:1003300000EB5161084C21F07F01401A2060FFF76B
:10034000F1FEC11700EB916121F03F01401A60609E
:100350000120A06010BD0000582C002070B5134C87
:10036000134D207C2A68811C914217DB801E90422D
:1003700014DC607C6968831C8B420FDB801E884222
:100380000CDCA86868B10020A860D0B2C9B2022312
:10039000012201F049FC2068401C2060A868002868
:1003A00003D1BDE87040FFF7BFBF70BD3805002026
:1003B000582C002070B500240D4D08E005EB4400DA
:1003C0000223417C007C002201F02EFC641C286882
:1003D000A042F3DC0748816829B101790078022343
:1003E000002201F021FCBDE8704001F071BB00006B
:1003F00038050020582C002070B501F04BFB01F0AF
:100400003DFB0D480421032201600121C0E90121C7
:10041000C16000210A2306240278521A03EB420528
:1004200000EB4102491C1574547402688A42F3DCE3
:10043000BDE87040FFF778BF38050020F8B500250B
:100440000446009590F82400012808D0012084F883
:1004500024002046FFF7A2FE060002D053E002204F
:10046000F8BDA06A20F4885040F00200A06202208B
:1004700000F0C6FD26490968B1FBF0F0400000E03D
:10048000401E00900028FBD12046FFF7EBFE2068BD
:10049000816841F00801816000F014FD074608E022
:1004A00000F010FDC01B0A2803D9206880680007EF
:1004B00015D4206880680007F2D42068816841F074
:1004C0000401816000F0FEFC074612E000F0FAFC37
:1004D000C01B0A280DD920688068400709D5A06A8A
:1004E00020F0020040F01000A06284F824500120A7
:1004F000F8BD206880684007E8D4A06A20F00200B8
:1005000040F00100A06284F824503046F8BD00009D
:100510000C00002070470000F8B50024009490F80B
:1005200024202546012A12D0012280F824204A687E
:100530001F23072A0DD20668776B521E02EB820238
:1005400093409F430B6893401F43776319E0022059
:10055000F8BD06680D2A0AD2376BD21F02EB820261
:1005600093409F430B6893401F43376309E0F76A4A
:100570000D3A02EB820293409F430B6893401F4366
:10058000F7620A68072306680A2A0AD3F7680A3A54
:1005900002EB420293409F438B6893401F43F760F6
:1005A00008E0376902EB420293409F438B68934017
:1005B0001F4337610A68102A01D0112A20D1124B3B
:1005C00002689A4217D193681B0219D4936843F4C6
:1005D000000393600968102912D10C490C4A09687C
:1005E000B1FBF2F101EB8101490000E0491E0091ED
:1005F0000029FBD104E0816A41F0200181620124DD
:1006000080F824502046F8BD002401400C00002052
:1006100040420F0010B50068184988422CD10021D3
:10062000174B0A46084600BF33F81040401C2144CF
:1006300033F81040401C22443228F5DB1920B1FB6E
:10064000F0F1B2FBF0F04FF4A57358435943020B9D
:10065000090B4FF496730B489A4201D300210AE02C
:100660001E2A01D8012106E0994201D3022102E0AD
:100670001E2901D80321016010BD000000240140A3
:100680001C000020100000207047704710B5044681
:1006900000684168890626D50168890723D5A16AC3
:1006A000C90603D4A16A41F40071A1628168C1F353
:1006B0004241072910D1217B71B9416821F0200105
:1006C0004160A06A20F48070A062A06AC00403D4D4
:1006D000A06A40F00100A0622046FFF79BFF21685E
:1006E0006FF0120008602068416809062ED5016885
:1006F00049072BD5A16AC90603D4A16A41F4005168
:10070000A1628168C1F30231072909D04168490516
:1007100015D48168C1F34241072910D1217B71B9F9
:10072000416821F080014160A06A20F48050A062FD
:10073000A06AC00503D4A06A40F00100A062204670
:10074000FFF7E8FE21686FF00C0008602068416840
:1007500049060DD50068C0070AD0A06A40F4803071
:10076000A062204600F094F821686FF00100086054
:1007700010BD00002DE9F0414FF0000704003D4698
:100780007ED0A06A002628B9E66284F8246020465C
:1007900000F080F82046FFF701FDA16A01F010018A
:1007A000014304D0A06A40F01000A06268E0A16A92
:1007B00021F4885141F00201A1626268E169237B62
:1007C0000A4347EA43010A43A1684FF48077B942DC
:1007D00008D0012906D0002194F814C0BCF1010F03
:1007E00002D00AE03946F7E7F3B1A36A43F02003E9
:1007F000A362E36A43F00103E3622368D3F804C011
:100800002CF4694C4CEA010CC3F804C023689968C5
:10081000DFF870C001EA0C0111439960A168B94288
:100820000BD0012909D00CE0DFF85CC0A3690CEB08
:1008300043330B4343F40061DFE7218A0D05A5F53F
:1008400080152168CB6A23F470032B43CB622168A7
:1008500089680E4B1940914208D1E662A16A21F0E5
:10086000020141F00101A162BDE8F081A06A20F01F
:10087000020040F01000A062E06A40F00100E06277
:100880000120F1E7FDF7E1FF00E0FFFFFE0E1FFF93
:100890007047000070B586B00025064600950195AA
:1008A0000295039500681D49884235D11C49886925
:1008B00040F400708861886900F4007004908869D1
:1008C00040F0040088618869694600F004000490E3
:1008D000032000900190134800F0F6F9134C1248E1
:1008E000C4E900058020C4E9025040002061800076
:1008F00060612020C4E90605204600F049F908B1EE
:10090000FFF70FFD3462002211461220666200F0EC
:1009100045FB122000F034FB06B070BD00240140FE
:10092000001002400008014008000240B000002012
:100930002DE9F047894604463B4900683B4F0E1DB0
:100940009046884201D0B84207D1306810F4702F29
:1009500003D001252846BDE8F08794F8240001283B
:100960000CD0012084F824002046FFF77BFC050012
:100970004FF0000004D084F82400EBE70220EAE7FF
:10098000A16A40F60162914341F48071A16221683D
:10099000B94218D1326812F4702F14D0A16A41F410
:1009A0008011A1623168490505D5A16A21F4005181
:1009B00041F48051A162A16AC9040AD5E16A21F01B
:1009C0000601E16206E0A26A22F48012A26249688E
:1009D000E9E7E06284F82400216A15488862216A08
:1009E0001448C862216A1448086321686FF0020045
:1009F00008602068816841F4807181602168434605
:100A00004A464C31206A00F0F1F820688168C1F351
:100A100042410729816803D041F48011816099E740
:100A200041F4A001FAE70000002401400028014041
:100A3000F30100085B020008410200082DE9F05FA5
:100A4000C16B0C6801680B68D0F840C0042202FA40
:100A50000CF2494DDFF824A1494E4A4FDFF828B186
:100A6000DFF828E122422CD05A072AD50A689206DC
:100A700003D40A6822F004020A600168A94201D185
:100A8000042219E0514501D1402215E0B14202D1C2
:100A90004FF4806210E0B94202D14FF480420BE083
:100AA000594502D14FF4802206E0714502D14FF43E
:100AB000800201E04FF080622F4908394A60C16A24
:100AC0003BE04FF0020808FA0CF818EA040F4FF068
:100AD00000094FF0010235D05FEA837832D50B6808
:100AE0009B0605D40B6823F00A030B6080F82120D5
:100AF0000168A94201D1022219E0514501D1202209
:100B000015E0B14202D14FF4007210E0B94202D1B7
:100B10004FF400520BE0594502D14FF4003206E089
:100B2000714502D14FF4001201E04FF000721249FA
:100B300008394A6080F82090816A00291AD0BDE8FF
:100B4000F05F0847082505FA0CF5254212D01B076F
:100B500010D50B6823F00E030B6090F84010C36BA8
:100B600002FA01F15960826380F8212080F8209018
:100B7000016BE2E7BDE8F09F080002401C00024064
:100B80003000024044000240580002406C00024025
:100B900030B528B308C8134914221944B1FBF2F147
:100BA0008900C16310498163022141771A6843F6C5
:100BB000F0718A43D0E900142143D0E902452C4367
:100BC000214304692143446921438469214311433A
:100BD000196000214163012242770177084630BD48
:100BE000012030BDF8FFFDBF0000024070B5044693
:100BF00090F82000002501280CD0012084F8200066
:100C000094F821600020012E06D084F820000225EF
:100C1000284670BD022070BD022684F82160A063C2
:100C20002068066826F0010606602046FFF760FB94
:100C3000E06A00282068016802D041F00E0106E059
:100C400021F0040101602068016841F00A0101609F
:100C50002068016841F001010160D9E770B50446E0
:100C600000F030F90546601C02D0044800780444C6
:100C700000F028F9401BA042FAD370BD000000200C
:100C800010B5042808D1C102044800F00DF9BDE8F0
:100C9000104003A001F09AB910BD000000100140FF
:100CA0000D0AB0B4BCFCB7ADD7AA0D0A0000000015
:100CB000044910B50A68024202D00860FFF7E0FF5D
:100CC00010BD0000140401402DE9F84FDFF8B89181
:100CD000002409F1040A0AF1040B23460F270BF143
:100CE000040EC9E00125A5402A40AA427DD1674EE5
:100CF000D1F804C0ACEB0608B44532D014DCBCF12A
:100D0000030F3AD009DCBCF1000F2AD0BCF1010F6F
:100D10001CD0BCF1020F31D11DE0BCF1110F17D076
:100D2000BCF1120F2AD119E0B8F5881F19D006DCE2
:100D3000B8F5803F15D0B8F5801F1FD111E0B8F588
:100D4000001F0ED0B8F5041F18D10AE0CB6815E0DB
:100D5000CB681B1D12E0CB6808330FE0CB680C3367
:100D60000CE08B682BB1012B4FF0080303D04561D9
:100D700004E0042302E0056100E00023FF2A01D81B
:100D8000064601E000F104064FEA840501D9A5F109
:100D90002005D6F8008007FA05FC28EA0C0803FABB
:100DA00005F548EA0508C6F800804D68ED0062D5F3
:100DB000374DAE6946F00106AE61AD6924F0030619
:100DC00005F001050095334D06EB050CDCF80850E5
:100DD000A607360F07FA06F825EA0805DFF8B880F7
:100DE000404503D14FF0000817E044E0DFF8AC8045
:100DF000404502D14FF001080FE0DFF8A4804045E4
:100E000002D14FF0020808E0DFF89880404502D197
:100E10004FF0030801E04FF0040808FA06F848EA2A
:100E20000508CCF808804D68D9F80060ED034D4600
:100E300001D5164300E096432E604D68DAF8006055
:100E4000AD03554601D5164300E096432E604D682C
:100E5000DBF80060ED025D4601D5164300E09643E5
:100E60002E604D68DEF80060AD02754601D5164370
:100E700000E096432E60641C0D682A46E5407FF42E
:100E800031AFBDE8F88F00000004014000001110F0
:100E9000001002400000014000080140000C014029
:100EA0000010014000140140C26821EA02030A4018
:100EB00043EA0241016170470AB1016170470904C8
:100EC000FBE7000001488068704700000000002038
:100ED0000248816802781144816070470000002058
:100EE000074810B5016841F010010160032000F0CF
:100EF00075F80F2000F006F800F024F8002010BD6F
:100F00000020024070B50D4D04464FF47A712878E8
:100F1000B1FBF0F00A490968B1FBF0F000F0C6FB44
:100F200048B9102C07D200222146501E00F036F896
:100F300000206C6070BD012070BD0000000000202A
:100F40000C0000200C4808B5816941F00101816165
:100F5000816901F001010091C16941F08051C161D5
:100F6000C06900F0805000900448416821F0E061C1
:100F700041F08061416008BD001002400000014066
:100F8000002809DB00F01F02012191404009800088
:100F900000F1E020C0F8001170470000F0B40E4BE3
:100FA0001B680C46C3F30223C3F10705042D00D9C7
:100FB0000425191D072901D2002300E0DB1E0126AC
:100FC00006FA05F1491E214099409E40761E1640C2
:100FD0003143F0BC01F002B80CED00E0064900F02E
:100FE000070208684FF6FF03184040EA0220034A50
:100FF00010430860704700000CED00E00000FA05A7
:1010000010B529A401461DCC86B08DE81D002AA08C
:101010002A4C006804900020012923D002293AD0EC
:1010200010291DD161682268D20119D5C1F383420C
:10103000C9031DF8020009D5616804AAC1F3404143
:10104000515C1F4AB2FBF1F1484301E01D4948439E
:101050006168490204D440005FF00301B0FBF1F085
:1010600006B010BD226AC2F30121012903D1920703
:1010700001D5C803F4E7022905D1626A920702D5B7
:1010800049F64040ECE70329EAD121688903E7D516
:101090004FF22440E4E700F033F96168C1F3813195
:1010A000491C4900DAE700000203040506070809A5
:1010B0000A0B0C0D0E0F1010010200000010024070
:1010C00000127A0000093D002DE9F843054600783A
:1010D000354CC00754D0E0690026C00008D4E06950
:1010E00040F08050E061E069012600F080500090FF
:1010F0002E480168C90512D40168804641F4807108
:101100000160FFF7DFFE074605E000BFFFF7DAFEEC
:10111000C01B642823D8D8F80000C005F6D5206A83
:1011200010F4407021D0A98801F4407181421CD094
:10113000206A1F49012220F440700A6000220A60E0
:101140002062C00711D0FFF7BDFE074641F2883884
:1011500008E000BFFFF7B6FEC11B414502D90320DE
:10116000BDE8F883206A8007F4D5206A696820F416
:101170004070084320621EB1E06920F08050E061B9
:101180002878800705D56068A96820F440400843A6
:1011900060602878C00605D56068E96820F48000A2
:1011A000084360600020DBE7001002400070004050
:1011B000400442422DE9F0470F46050061D0434EFE
:1011C000306800F00700B84209D2306820F007000C
:1011D00038433060306800F00700B84251D12868C9
:1011E0003B4C810712D5400703D5606840F4E060AE
:1011F00060602878000703D5606840F46050606044
:101200006068A96820F0F000084360602878C00793
:1012100028D06868012810D02168022810D08907DA
:1012200000292EDA616821F0030101436160FFF7B4
:1012300049FE804641F288390DE021688903EFE7D5
:101240008901EDE7FFF73EFEA0EB0801494502D911
:101250000320BDE8F0876068696800F00C00B0EB1F
:10126000810FEFD1306800F00700B8420BD9306829
:1012700020F0070038433060306800F00700B842C3
:1012800001D00120E5E72878400705D56068E968C6
:1012900020F4E060084360602878000706D56068A5
:1012A000296920F4605040EAC100606000F038F81D
:1012B0006168084AC1F30311515CC84006490860DF
:1012C00006480068FFF71EFE0020C2E7002002402B
:1012D00000100240A82000080C000020040000209C
:1012E0000448054900684968044AC1F30221515C79
:1012F000C84070470C00002000100240B8200008D1
:101300000448054900684968044AC1F3C221515C98
:10131000C84070470C00002000100240B8200008B0
:1013200012A185B00FC98DE80F0014A0144A0068FF
:1013300004905168134801F00C03042B10D0082BC3
:101340000ED1C1F38343C9031DF803000AD55168C8
:1013500004AAC1F34041515C0A4A5043B0FBF1F08A
:1013600005B0704708494843FAE700000203040546
:10137000060708090A0B0C0D0E0F101001020000E1
:101380000010024000127A0000093D002DE9F84FDC
:10139000040070D02078C04DC00749D06868C0F301
:1013A0008100012807D06868C0F38100022809D1B4
:1013B0006868C00306D52868800339D560680028AE
:1013C000E7D035E06068B0F5803F0BD010B1B0F5E4
:1013D000A02F11D0286820F480302860286820F4DD
:1013E000802002E0286840F480302860606890B176
:1013F000FFF768FD06460AE0286840F48020286070
:10140000F0E700BFFFF75EFD801B642873D82868F3
:101410008003F7D50CE0FFF755FD064605E000BF59
:10142000FFF750FD801B6428F0D828688003F7D4AC
:1014300020789A4E80074FF001094FF0000839D507
:10144000686810F00C0F07D06868C0F381000228AC
:1014500009D16868C00306D42868800714D52069BC
:10146000012808D110E02069B0B1C6F80090FFF75C
:1014700029FD074605E00AE1FFF724FDC01B02280D
:10148000C4D828688007F7D52868616920F0F8007B
:1014900040EAC10028600DE0C6F80080FFF712FDA9
:1014A000074604E0FFF70EFDC01B022823D828687A
:1014B0008007F7D4207800072CD57948A169D9B1E5
:1014C000C0F80090FFF7FEFC074604E0FFF7FAFCC7
:1014D000C01B02280FD8686A8007F7D571484FF4FF
:1014E000FA510068B0FBF1F0009000BF0098411E77
:1014F0000091FAD20EE080E0C0F80080FFF7E2FC35
:10150000074604E0FFF7DEFCC01B022875D8686AB6
:101510008007F7D42078400760D5E8690027C0002D
:1015200008D4E86940F08050E861E869012700F0DC
:10153000805000905C480168C90513D40168834657
:1015400041F480710160FFF7BDFC824606E000BFF8
:10155000FFF7B8FCA0EB0A0064284ED8DBF80000C7
:10156000C005F5D5E06801280AD008B1052813D0D8
:10157000286A20F001002862286A20F0040002E0B6
:10158000286A40F001002862E06841F2883B98B187
:10159000FFF798FC82460BE0286A40F004002862BE
:1015A000EEE700BFFFF78EFCA0EB0A0159455AD8C1
:1015B000286A8007F6D50CE0FFF784FC824605E038
:1015C000FFF780FCA0EB0A0159454CD8286A800738
:1015D000F6D41FB1E86920F08050E861E06988B373
:1015E0006968C1F38101022944D00228C6F86080ED
:1015F00004D0FFF767FC044638E034E0FFF762FCF4
:10160000074604E0FFF75EFCC01B02282BD82868C1
:101610008001F7D4206AB0F5803F05D16868A168E1
:1016200020F4003008436860D4E908010843696881
:1016300021F4741108436860C6F86090FFF742FC1B
:10164000044606E025E000BFFFF73CFC001B022833
:1016500009D828688001F7D51BE000BFFFF732FCEE
:10166000001B022802D90320BDE8F88F28688001FA
:10167000F4D40EE00128F7D06868226A00F48031C3
:10168000914204D1616A00F47010884201D00120B7
:10169000EAE70020E8E700000010024000004242B4
:1016A000800442420C0000200070004010B5401E33
:1016B000B0F1807F01D3012010BD4FF0E0246061C4
:1016C0000F21601700F08AFC0020A0610720206134
:1016D000002010BD70B5040004D094F83D00002532
:1016E00010B106E0012070BD84F83C50204600F0A7
:1016F00023F8242084F83D002068C16821F40051BB
:10170000C160204600F07CFB2068016921F4904113
:1017100001612068416921F02A0141612068C168A6
:1017200041F40051C1602564202084F83D0084F814
:101730003E00002070BD000030B585B0002400944C
:1017400001940294039400681449884224D11448F7
:10175000816941F480418161816901F48041049192
:10176000816941F00401816180690E4D00F004003F
:1017700004904FF400700090022001900320039029
:1017800069462846FFF7A0FA2815CDE90004694606
:1017900028460294FFF798FA05B030BD00380140A2
:1017A00000100240000801402DE9F843044690F87B
:1017B0003D001F4616460D4620284CD1C5B1BEB18E
:1017C00094F83C00012846D0012084F83C004FF0FA
:1017D0000008C4F84080212084F83D00FFF772FB28
:1017E000A6848146E684A068B0F5805F03D004E05B
:1017F0000120BDE8F883206928B12E465FF000057E
:1018000084F83C800EE00026FAE78021204600F0B4
:1018100053FBA0B9AEB116F8010B21684860E08C0B
:10182000401EE084E08C4B464FF0000200970028F9
:10183000EBD14FF04001204600F03EFB30B10320D9
:10184000D7E735F8020BC0F30800E6E7202084F85C
:101850003D000020CDE70220CBE7FEE710B50B4CA2
:10186000012240212046FFF727FB0122802120464C
:10187000FFF722FB002280212046FFF71DFB2046B8
:101880000022BDE810404021FFF716BB000C0140CC
:1018900010B5094C012240212046FFF70DFB002224
:1018A00080212046FFF708FB20460122BDE81040BA
:1018B0008021FFF701BB0000000C014010B5064C71
:1018C000012240212046FFF7F7FA20460022BDE81A
:1018D00010404021FFF7F0BA000C0140FEB5002592
:1018E000164800950195144902950160891581609B
:1018F000012404730575022606614FF460214560DA
:10190000C161FEF737FF08B1FEF70BFDCDE90054CA
:1019100069460A480294FEF7FFFD08B1FEF701FD93
:10192000CDE9004669460548FEF7F6FD002801D0DE
:10193000FEF7F7FCFEBD00000024014080000020FF
:10194000094808B5416941F001014161406900223F
:1019500000F00100009011460B20FFF71FFBBDE8CF
:1019600008400B20FFF70CBB001002402DE9F041AE
:1019700086B000242D480094019402940394816958
:1019800041F010018161816901F0100104918169C8
:1019900041F020018161816901F020010491816998
:1019A00041F004018161816901F0040104918169C0
:1019B00041F00801816180691D4F00F008004FF47B
:1019C00000550490002229463846FFF775FADFF8E3
:1019D00064800022C0214046FFF76EFA009502267F
:1019E00001250396CDE9015469463846FFF76CF9A5
:1019F000042000901048CDE9010569460F48FFF723
:101A000063F9C020CDE90005CDE9024669464046AC
:101A1000FFF75AF9002211460820FFF7BFFA082005
:101A2000FFF7AEFA06B0BDE8F081000000100240FA
:101A300000100140000C014000002110000801408E
:101A40000C4810B50A4901604FF4E13141600021B2
:101A500081600C22C160C0E904128161C161FFF79D
:101A600039FE002803D0BDE81040FEF75ABC10BD77
:101A700000380140F4000020FEE7FEE710B5002426
:101A800080210348FEF767FB641C082CF8DB10BDBF
:101A90003801002070B50024002104F1B00000F0EE
:101AA000BCF80021084600F0B8F80021102000F032
:101AB000B4F800250121002000F0AFF86D1CEDB254
:101AC000802DF7D3641CE4B2082CE5D370BD000070
:101AD0002DE9F0410A4F0025002407EBC516E9B2B5
:101AE000E0B200F085F8305D012100F096F8641C4A
:101AF000802CF4DB6D1C082DEEDBBDE8F0810000CE
:101B00003801002010B50122C0213848FFF7D4F970
:101B10000021AE2000F081F80021084600F07DF899
:101B20000021102000F079F80021402000F075F825
:101B30000021B02000F071F80021812000F06DF844
:101B40000021FF2000F069F80021A12000F065F8D5
:101B50000021A62000F061F80021A82000F05DF827
:101B600000213F2000F059F80021C82000F055F86E
:101B70000021D32000F051F80021084600F04DF874
:101B80000021D52000F049F80021802000F045F820
:101B90000021D82000F041F80021052000F03DF898
:101BA0000021D92000F039F80021F12000F035F8AB
:101BB0000021DA2000F031F80021122000F02DF889
:101BC0000021DB2000F029F80021302000F025F86A
:101BD00000218D2000F021F80021142000F01DF8D4
:101BE0000021BDE81040AF2000F017B8000C014004
:101BF00010B50A460446002102F1B00000F00DF8CD
:101C0000102040EA1410002100F007F804F00F0043
:101C1000BDE810400021AFF30080C0B209B100F070
:101C2000BEB900F0A5B970472DE9F04391460025F3
:101C30001F4E39E04A19D41702EB5474C4F3C70796
:101C400024F00704121B02F0FF0C0124002202E022
:101C50006406240E521C6245FADBB9F1000F03D072
:101C6000B9F1010F10D01EE0002206EBC71708E003
:101C700000EB020C521C17F80C8048EA040807F825
:101C80000C809A42F4DB0EE0002206EBC71708E056
:101C900000EB020C521C17F80C8028EA040807F825
:101CA0000C809A42F4DB6D1C9D42C3DBBDE8F083DF
:101CB00038010020704700000D4802680D48416857
:101CC0004AB1012A0BD0022A0ED0032A0BD10229D5
:101CD00009D0032106E0012905D0002102E00029F6
:101CE00001D00121416070470329FCD00221F9E7AE
:101CF000100000203805002010B5204CE0680028B6
:101D000023D02068022304EB40000122C17B807BAA
:101D1000FFF78AFF206805E004EB40018A7B0A7424
:101D2000CA7B4A74401E0028F6DC6168B1B100200D
:101D300001291BD0022909D0032906D1217C891C45
:101D4000C9B22174802900D3207410BD207C801E6C
:101D500010F0FF002074F8D18020F5E7607C801E31
:101D600010F0FF006074F0D1402005E0617C891C18
:101D7000C9B261744029E8D3607410BD38050020F1
:101D8000FFF7A6B830B593B028216846FEF7E3F90F
:101D900014210AA8FEF7DFF9002501200F95109500
:101DA0001195010412958DE8230004904FF4E01082
:101DB000CDE90810022407946846FFF7E7FA08B156
:101DC00072B6FEE70AA90F2081E831004FF4806067
:101DD000CDE90D0502210AA8FFF7ECF908B172B6AA
:101DE000FEE74FF4004011900F940FA8FFF76CF935
:101DF000002801D072B6FEE713B030BD7047000076
:101E000070B5044600680169E26821F4405111434D
:101E100001612169A0680843616908432168CA68B3
:101E200041F20C639A430243CA6020684169A26987
:101E300021F44071114341611E492068884202D15A
:101E4000FFF75EFA01E0FFF74BFA00EBC00101EB90
:101E50000012606864218000B2FBF0F3B3FBF1F381
:101E60006FF018067343B2FBF0F5B2FBF0F605EB2A
:101E70008305322303EB0515B5FBF1F5B6FBF1F64F
:101E800005F0F00505EB0615B2FBF0F6B2FBF0F03D
:101E9000B0FBF1F06FF01802504306EB800003EB4B
:101EA0000010B0FBF1F0216800F00F0028448860BA
:101EB00070BD0000003801402DE9F04198461746FA
:101EC0000E460446069D1DE0681C1BD02DB1FEF792
:101ED000F9FFA0EB0800A84214D92068C16821F4DA
:101EE000D071C1602068416921F001014161202069
:101EF00084F83D0084F83E00002084F83C00032074
:101F0000BDE8F0812068006836EA000004D00020B7
:101F1000B842D9D00020F3E70120F9E7FEE700003E
:101F200070B5124E0446002240213046FEF7C4FF31
:101F30005FF0000504F08000802815D00022802189
:101F40003046FEF7B9FF6006040E012240213046FC
:101F5000FEF7B2FF002240213046FEF7ADFF6D1CB8
:101F6000EDB2082DE6D370BD0122E8E7000C014078
:101F700010B50446FFF772FC7820FFF7D1FFFFF79A
:101F80009DFC0020FFF7CCFFFFF798FC2046FFF7F1
:101F9000C7FFFFF793FCBDE81040FFF779BC10B511
:101FA0000446FFF75BFC7820FFF7BAFFFFF786FCDB
:101FB0004020FFF7B5FFFFF781FC2046FFF7B0FF99
:101FC000FFF77CFCBDE81040FFF762BC014A024904
:101FD00000F023B83D200008180000200907090E72
:101FE000002804DB00F1E02080F80014704700F0C6
:101FF0000F0000F1E02080F8141D704702E008C8CF
:10200000121F08C1002AFAD170477047002001E072
:1020100001C1121F002AFBD170472DE9F04116467D
:102020000F460446002503E03946B047641C6D1C8A
:1020300020780028F8D12846BDE8F08113B54FF686
:10204000FF73012269460248FFF7AEFB00981CBDF2
:10205000F4000020FEF744FFFFF794FEFFF786FC34
:10206000FFF7EEFCFFF76CFCFFF738FC0C48FEF7BF
:10207000E5F932220B490A48FEF75AFCFFF742FD08
:10208000FEF7BAF9FEF796F9FFF736FEFEF792F97A
:10209000FEF764F9FFF710FE6420FEF7DFFDF3E7BB
:1020A000800000201C000020000000000000000054
:1020B00001020304060708090000000001020304EE
:1020C000E0200008000000201C000000FC1F0008A9
:1020D000FC2000081C0000204C3000000C200008F0
:1020E0000100000010000000000000000024F400C7
:0C20F000030000000000000000000000E1
:04000005080000ED02
:00000001FF
